{
  "contractName": "MobileDevice",
  "abi": [
    {
      "inputs": [],
      "name": "deviceCount",
      "outputs": [
        {
          "internalType": "uint256",
          "name": "",
          "type": "uint256"
        }
      ],
      "stateMutability": "view",
      "type": "function"
    },
    {
      "inputs": [
        {
          "internalType": "uint256",
          "name": "",
          "type": "uint256"
        }
      ],
      "name": "devices",
      "outputs": [
        {
          "internalType": "string",
          "name": "name",
          "type": "string"
        },
        {
          "internalType": "string",
          "name": "imei",
          "type": "string"
        },
        {
          "internalType": "string",
          "name": "location",
          "type": "string"
        },
        {
          "internalType": "string",
          "name": "imageUrl",
          "type": "string"
        },
        {
          "internalType": "bool",
          "name": "sold",
          "type": "bool"
        },
        {
          "internalType": "bool",
          "name": "lost",
          "type": "bool"
        },
        {
          "internalType": "address",
          "name": "owner",
          "type": "address"
        },
        {
          "internalType": "uint256",
          "name": "deviceId",
          "type": "uint256"
        },
        {
          "internalType": "string",
          "name": "email",
          "type": "string"
        }
      ],
      "stateMutability": "view",
      "type": "function"
    },
    {
      "inputs": [
        {
          "internalType": "uint256",
          "name": "",
          "type": "uint256"
        }
      ],
      "name": "users",
      "outputs": [
        {
          "internalType": "string",
          "name": "email",
          "type": "string"
        },
        {
          "internalType": "string",
          "name": "password",
          "type": "string"
        },
        {
          "internalType": "string",
          "name": "address_",
          "type": "string"
        },
        {
          "internalType": "string",
          "name": "country",
          "type": "string"
        },
        {
          "internalType": "string",
          "name": "zip",
          "type": "string"
        },
        {
          "internalType": "string",
          "name": "name",
          "type": "string"
        },
        {
          "internalType": "string",
          "name": "lat",
          "type": "string"
        },
        {
          "internalType": "string",
          "name": "lon",
          "type": "string"
        }
      ],
      "stateMutability": "view",
      "type": "function"
    },
    {
      "inputs": [
        {
          "internalType": "string",
          "name": "email",
          "type": "string"
        },
        {
          "internalType": "string",
          "name": "lat",
          "type": "string"
        },
        {
          "internalType": "string",
          "name": "lon",
          "type": "string"
        }
      ],
      "name": "updateLocation",
      "outputs": [],
      "stateMutability": "nonpayable",
      "type": "function"
    },
    {
      "inputs": [
        {
          "internalType": "string",
          "name": "email",
          "type": "string"
        }
      ],
      "name": "returnLocation",
      "outputs": [
        {
          "internalType": "string",
          "name": "",
          "type": "string"
        },
        {
          "internalType": "string",
          "name": "",
          "type": "string"
        }
      ],
      "stateMutability": "view",
      "type": "function"
    },
    {
      "inputs": [
        {
          "internalType": "string",
          "name": "email",
          "type": "string"
        },
        {
          "internalType": "string",
          "name": "password",
          "type": "string"
        },
        {
          "internalType": "string",
          "name": "address_",
          "type": "string"
        },
        {
          "internalType": "string",
          "name": "country",
          "type": "string"
        },
        {
          "internalType": "string",
          "name": "zip",
          "type": "string"
        },
        {
          "internalType": "string",
          "name": "name",
          "type": "string"
        }
      ],
      "name": "registerUser",
      "outputs": [],
      "stateMutability": "nonpayable",
      "type": "function"
    },
    {
      "inputs": [
        {
          "internalType": "string",
          "name": "email",
          "type": "string"
        },
        {
          "internalType": "string",
          "name": "password",
          "type": "string"
        }
      ],
      "name": "loginUser",
      "outputs": [
        {
          "internalType": "bool",
          "name": "",
          "type": "bool"
        }
      ],
      "stateMutability": "view",
      "type": "function"
    },
    {
      "inputs": [
        {
          "internalType": "string",
          "name": "email",
          "type": "string"
        }
      ],
      "name": "userDetails",
      "outputs": [
        {
          "internalType": "string",
          "name": "",
          "type": "string"
        },
        {
          "internalType": "string",
          "name": "",
          "type": "string"
        },
        {
          "internalType": "string",
          "name": "",
          "type": "string"
        },
        {
          "internalType": "string",
          "name": "",
          "type": "string"
        }
      ],
      "stateMutability": "view",
      "type": "function"
    },
    {
      "inputs": [
        {
          "internalType": "string",
          "name": "name_",
          "type": "string"
        },
        {
          "internalType": "string",
          "name": "imei",
          "type": "string"
        },
        {
          "internalType": "string",
          "name": "location",
          "type": "string"
        },
        {
          "internalType": "string",
          "name": "imageUrl",
          "type": "string"
        }
      ],
      "name": "registerDevice",
      "outputs": [],
      "stateMutability": "nonpayable",
      "type": "function"
    },
    {
      "inputs": [
        {
          "internalType": "uint256",
          "name": "deviceId",
          "type": "uint256"
        },
        {
          "internalType": "string",
          "name": "email",
          "type": "string"
        }
      ],
      "name": "purchase",
      "outputs": [
        {
          "internalType": "uint256",
          "name": "",
          "type": "uint256"
        }
      ],
      "stateMutability": "nonpayable",
      "type": "function"
    },
    {
      "inputs": [
        {
          "internalType": "uint256",
          "name": "deviceId",
          "type": "uint256"
        },
        {
          "internalType": "string",
          "name": "email",
          "type": "string"
        }
      ],
      "name": "markLost",
      "outputs": [],
      "stateMutability": "nonpayable",
      "type": "function"
    },
    {
      "inputs": [
        {
          "internalType": "uint256",
          "name": "deviceId",
          "type": "uint256"
        }
      ],
      "name": "isDeviceLost",
      "outputs": [
        {
          "internalType": "bool",
          "name": "",
          "type": "bool"
        }
      ],
      "stateMutability": "view",
      "type": "function"
    },
    {
      "inputs": [
        {
          "internalType": "uint256",
          "name": "deviceId",
          "type": "uint256"
        }
      ],
      "name": "isDeviceSold",
      "outputs": [
        {
          "internalType": "bool",
          "name": "",
          "type": "bool"
        }
      ],
      "stateMutability": "view",
      "type": "function"
    },
    {
      "inputs": [],
      "name": "device_Count",
      "outputs": [
        {
          "internalType": "uint256",
          "name": "",
          "type": "uint256"
        }
      ],
      "stateMutability": "view",
      "type": "function"
    },
    {
      "inputs": [
        {
          "internalType": "uint256",
          "name": "index",
          "type": "uint256"
        }
      ],
      "name": "getRDevice",
      "outputs": [
        {
          "internalType": "string",
          "name": "",
          "type": "string"
        },
        {
          "internalType": "string",
          "name": "",
          "type": "string"
        },
        {
          "internalType": "string",
          "name": "",
          "type": "string"
        },
        {
          "internalType": "string",
          "name": "",
          "type": "string"
        },
        {
          "internalType": "bool",
          "name": "",
          "type": "bool"
        },
        {
          "internalType": "bool",
          "name": "",
          "type": "bool"
        }
      ],
      "stateMutability": "view",
      "type": "function"
    },
    {
      "inputs": [
        {
          "internalType": "uint256",
          "name": "index",
          "type": "uint256"
        }
      ],
      "name": "getRHomeDevice",
      "outputs": [
        {
          "internalType": "string",
          "name": "",
          "type": "string"
        },
        {
          "internalType": "string",
          "name": "",
          "type": "string"
        },
        {
          "internalType": "string",
          "name": "",
          "type": "string"
        },
        {
          "internalType": "string",
          "name": "",
          "type": "string"
        },
        {
          "internalType": "bool",
          "name": "",
          "type": "bool"
        },
        {
          "internalType": "string",
          "name": "",
          "type": "string"
        }
      ],
      "stateMutability": "view",
      "type": "function"
    },
    {
      "inputs": [],
      "name": "getRegisteredDevices",
      "outputs": [
        {
          "internalType": "bytes",
          "name": "",
          "type": "bytes"
        }
      ],
      "stateMutability": "view",
      "type": "function"
    },
    {
      "inputs": [],
      "name": "getRDevices",
      "outputs": [
        {
          "components": [
            {
              "internalType": "string",
              "name": "name",
              "type": "string"
            },
            {
              "internalType": "string",
              "name": "imei",
              "type": "string"
            },
            {
              "internalType": "string",
              "name": "location",
              "type": "string"
            },
            {
              "internalType": "string",
              "name": "imageUrl",
              "type": "string"
            },
            {
              "internalType": "bool",
              "name": "sold",
              "type": "bool"
            },
            {
              "internalType": "bool",
              "name": "lost",
              "type": "bool"
            },
            {
              "internalType": "address",
              "name": "owner",
              "type": "address"
            },
            {
              "internalType": "uint256",
              "name": "deviceId",
              "type": "uint256"
            },
            {
              "internalType": "string",
              "name": "email",
              "type": "string"
            }
          ],
          "internalType": "struct MobileDevice.device[]",
          "name": "",
          "type": "tuple[]"
        }
      ],
      "stateMutability": "view",
      "type": "function"
    },
    {
      "inputs": [
        {
          "internalType": "uint256",
          "name": "deviceId",
          "type": "uint256"
        },
        {
          "internalType": "address",
          "name": "newOwner",
          "type": "address"
        },
        {
          "internalType": "string",
          "name": "email",
          "type": "string"
        }
      ],
      "name": "transferOwnership",
      "outputs": [],
      "stateMutability": "nonpayable",
      "type": "function"
    }
  ],
  "bytecode": "0x608060405234801561001057600080fd5b50614579806100206000396000f3fe608060405234801561001057600080fd5b50600436106101215760003560e01c8063535bca9a116100ad578063cecfe08411610071578063cecfe08414610353578063d147f95c1461036f578063da9581b61461038d578063ec8c26ed146103bd578063f756d557146103f257610121565b8063535bca9a146102c3578063632efe00146102e157806371625641146102fd5780637832a0d1146103195780638ce898471461033557610121565b80631da559fe116100f45780631da559fe146101c857806322ce12e5146101f85780633261975f14610228578063365b98b2146102595780633d2b7a891461029057610121565b8063018938f31461012657806305d4a7f51461015657806310ff8e311461017257806311d8cfe4146101aa575b600080fd5b610140600480360381019061013b91906139a2565b610427565b60405161014d9190613edf565b60405180910390f35b610170600480360381019061016b919061372f565b610490565b005b61018c600480360381019061018791906139a2565b610618565b6040516101a199989796959493929190614031565b60405180910390f35b6101b2610958565b6040516101bf919061421b565b60405180910390f35b6101e260048036038101906101dd91906139a2565b610961565b6040516101ef9190613edf565b60405180910390f35b610212600480360381019061020d91906136c3565b6109ca565b60405161021f9190613edf565b60405180910390f35b610242600480360381019061023d9190613682565b610b47565b604051610250929190613f1c565b60405180910390f35b610273600480360381019061026e91906139a2565b610dee565b604051610287989796959493929190614165565b60405180910390f35b6102aa60048036038101906102a59190613682565b611286565b6040516102ba9493929190613f53565b60405180910390f35b6102cb611708565b6040516102d8919061421b565b60405180910390f35b6102fb60048036038101906102f69190613a32565b61170e565b005b610317600480360381019061031291906139cb565b611941565b005b610333600480360381019061032e9190613889565b611af1565b005b61033d611c79565b60405161034a9190613ebd565b60405180910390f35b61036d600480360381019061036891906137c6565b612049565b005b610377612239565b6040516103849190613efa565b60405180910390f35b6103a760048036038101906103a29190613a32565b6128e2565b6040516103b4919061421b565b60405180910390f35b6103d760048036038101906103d291906139a2565b612ac0565b6040516103e9969594939291906140e1565b60405180910390f35b61040c600480360381019061040791906139a2565b612f6b565b60405161041e96959493929190613fb4565b60405180910390f35b60006001151560018381548110610467577f4e487b7100000000000000000000000000000000000000000000000000000000600052603260045260246000fd5b906000526020600020906007020160040160019054906101000a900460ff161515149050919050565b60005b60028054905081101561061257836040516020016104b19190613e2e565b6040516020818303038152906040528051906020012060028281548110610501577f4e487b7100000000000000000000000000000000000000000000000000000000600052603260045260246000fd5b90600052602060002090600802016000016040516020016105229190613e45565b6040516020818303038152906040528051906020012014156105ff578260028281548110610579577f4e487b7100000000000000000000000000000000000000000000000000000000600052603260045260246000fd5b9060005260206000209060080201600601908051906020019061059d92919061354d565b5081600282815481106105d9577f4e487b7100000000000000000000000000000000000000000000000000000000600052603260045260246000fd5b906000526020600020906008020160070190805190602001906105fd92919061354d565b505b808061060a9061442e565b915050610493565b50505050565b6001818154811061062857600080fd5b906000526020600020906007020160009150905080600001805461064b906143fc565b80601f0160208091040260200160405190810160405280929190818152602001828054610677906143fc565b80156106c45780601f10610699576101008083540402835291602001916106c4565b820191906000526020600020905b8154815290600101906020018083116106a757829003601f168201915b5050505050908060010180546106d9906143fc565b80601f0160208091040260200160405190810160405280929190818152602001828054610705906143fc565b80156107525780601f1061072757610100808354040283529160200191610752565b820191906000526020600020905b81548152906001019060200180831161073557829003601f168201915b505050505090806002018054610767906143fc565b80601f0160208091040260200160405190810160405280929190818152602001828054610793906143fc565b80156107e05780601f106107b5576101008083540402835291602001916107e0565b820191906000526020600020905b8154815290600101906020018083116107c357829003601f168201915b5050505050908060030180546107f5906143fc565b80601f0160208091040260200160405190810160405280929190818152602001828054610821906143fc565b801561086e5780601f106108435761010080835404028352916020019161086e565b820191906000526020600020905b81548152906001019060200180831161085157829003601f168201915b5050505050908060040160009054906101000a900460ff16908060040160019054906101000a900460ff16908060040160029054906101000a900473ffffffffffffffffffffffffffffffffffffffff16908060050154908060060180546108d5906143fc565b80601f0160208091040260200160405190810160405280929190818152602001828054610901906143fc565b801561094e5780601f106109235761010080835404028352916020019161094e565b820191906000526020600020905b81548152906001019060200180831161093157829003601f168201915b5050505050905089565b60008054905090565b600060011515600183815481106109a1577f4e487b7100000000000000000000000000000000000000000000000000000000600052603260045260246000fd5b906000526020600020906007020160040160009054906101000a900460ff161515149050919050565b600080600090505b600280549050811015610b3b57836040516020016109f09190613e2e565b6040516020818303038152906040528051906020012060028281548110610a40577f4e487b7100000000000000000000000000000000000000000000000000000000600052603260045260246000fd5b9060005260206000209060080201600001604051602001610a619190613e45565b60405160208183030381529060405280519060200120148015610b19575082604051602001610a909190613e2e565b6040516020818303038152906040528051906020012060028281548110610ae0577f4e487b7100000000000000000000000000000000000000000000000000000000600052603260045260246000fd5b9060005260206000209060080201600101604051602001610b019190613e45565b60405160208183030381529060405280519060200120145b15610b28576001915050610b41565b8080610b339061442e565b9150506109d2565b50600090505b92915050565b60608060005b600280549050811015610dc35783604051602001610b6b9190613e2e565b6040516020818303038152906040528051906020012060028281548110610bbb577f4e487b7100000000000000000000000000000000000000000000000000000000600052603260045260246000fd5b9060005260206000209060080201600001604051602001610bdc9190613e45565b604051602081830303815290604052805190602001201415610db05760028181548110610c32577f4e487b7100000000000000000000000000000000000000000000000000000000600052603260045260246000fd5b906000526020600020906008020160060160028281548110610c7d577f4e487b7100000000000000000000000000000000000000000000000000000000600052603260045260246000fd5b9060005260206000209060080201600701818054610c9a906143fc565b80601f0160208091040260200160405190810160405280929190818152602001828054610cc6906143fc565b8015610d135780601f10610ce857610100808354040283529160200191610d13565b820191906000526020600020905b815481529060010190602001808311610cf657829003601f168201915b50505050509150808054610d26906143fc565b80601f0160208091040260200160405190810160405280929190818152602001828054610d52906143fc565b8015610d9f5780601f10610d7457610100808354040283529160200191610d9f565b820191906000526020600020905b815481529060010190602001808311610d8257829003601f168201915b505050505090509250925050610de9565b8080610dbb9061442e565b915050610b4d565b506040518060200160405280600081525060405180602001604052806000815250915091505b915091565b60028181548110610dfe57600080fd5b9060005260206000209060080201600091509050806000018054610e21906143fc565b80601f0160208091040260200160405190810160405280929190818152602001828054610e4d906143fc565b8015610e9a5780601f10610e6f57610100808354040283529160200191610e9a565b820191906000526020600020905b815481529060010190602001808311610e7d57829003601f168201915b505050505090806001018054610eaf906143fc565b80601f0160208091040260200160405190810160405280929190818152602001828054610edb906143fc565b8015610f285780601f10610efd57610100808354040283529160200191610f28565b820191906000526020600020905b815481529060010190602001808311610f0b57829003601f168201915b505050505090806002018054610f3d906143fc565b80601f0160208091040260200160405190810160405280929190818152602001828054610f69906143fc565b8015610fb65780601f10610f8b57610100808354040283529160200191610fb6565b820191906000526020600020905b815481529060010190602001808311610f9957829003601f168201915b505050505090806003018054610fcb906143fc565b80601f0160208091040260200160405190810160405280929190818152602001828054610ff7906143fc565b80156110445780601f1061101957610100808354040283529160200191611044565b820191906000526020600020905b81548152906001019060200180831161102757829003601f168201915b505050505090806004018054611059906143fc565b80601f0160208091040260200160405190810160405280929190818152602001828054611085906143fc565b80156110d25780601f106110a7576101008083540402835291602001916110d2565b820191906000526020600020905b8154815290600101906020018083116110b557829003601f168201915b5050505050908060050180546110e7906143fc565b80601f0160208091040260200160405190810160405280929190818152602001828054611113906143fc565b80156111605780601f1061113557610100808354040283529160200191611160565b820191906000526020600020905b81548152906001019060200180831161114357829003601f168201915b505050505090806006018054611175906143fc565b80601f01602080910402602001604051908101604052809291908181526020018280546111a1906143fc565b80156111ee5780601f106111c3576101008083540402835291602001916111ee565b820191906000526020600020905b8154815290600101906020018083116111d157829003601f168201915b505050505090806007018054611203906143fc565b80601f016020809104026020016040519081016040528092919081815260200182805461122f906143fc565b801561127c5780601f106112515761010080835404028352916020019161127c565b820191906000526020600020905b81548152906001019060200180831161125f57829003601f168201915b5050505050905088565b60608060608060005b6002805490508110156116b757856040516020016112ad9190613e2e565b60405160208183030381529060405280519060200120600282815481106112fd577f4e487b7100000000000000000000000000000000000000000000000000000000600052603260045260246000fd5b906000526020600020906008020160000160405160200161131e9190613e45565b6040516020818303038152906040528051906020012014156116a45760028181548110611374577f4e487b7100000000000000000000000000000000000000000000000000000000600052603260045260246000fd5b9060005260206000209060080201600501600282815481106113bf577f4e487b7100000000000000000000000000000000000000000000000000000000600052603260045260246000fd5b90600052602060002090600802016002016002838154811061140a577f4e487b7100000000000000000000000000000000000000000000000000000000600052603260045260246000fd5b906000526020600020906008020160030160028481548110611455577f4e487b7100000000000000000000000000000000000000000000000000000000600052603260045260246000fd5b9060005260206000209060080201600401838054611472906143fc565b80601f016020809104026020016040519081016040528092919081815260200182805461149e906143fc565b80156114eb5780601f106114c0576101008083540402835291602001916114eb565b820191906000526020600020905b8154815290600101906020018083116114ce57829003601f168201915b505050505093508280546114fe906143fc565b80601f016020809104026020016040519081016040528092919081815260200182805461152a906143fc565b80156115775780601f1061154c57610100808354040283529160200191611577565b820191906000526020600020905b81548152906001019060200180831161155a57829003601f168201915b5050505050925081805461158a906143fc565b80601f01602080910402602001604051908101604052809291908181526020018280546115b6906143fc565b80156116035780601f106115d857610100808354040283529160200191611603565b820191906000526020600020905b8154815290600101906020018083116115e657829003601f168201915b50505050509150808054611616906143fc565b80601f0160208091040260200160405190810160405280929190818152602001828054611642906143fc565b801561168f5780601f106116645761010080835404028352916020019161168f565b820191906000526020600020905b81548152906001019060200180831161167257829003601f168201915b50505050509050945094509450945050611701565b80806116af9061442e565b91505061128f565b506040518060200160405280600081525060405180602001604052806000815250604051806020016040528060008152506040518060200160405280600081525093509350935093505b9193509193565b60005481565b60008210158015611723575060018054905082105b61172c57600080fd5b600115156001838154811061176a577f4e487b7100000000000000000000000000000000000000000000000000000000600052603260045260246000fd5b906000526020600020906007020160040160009054906101000a900460ff1615151461179557600080fd5b3373ffffffffffffffffffffffffffffffffffffffff16600183815481106117e6577f4e487b7100000000000000000000000000000000000000000000000000000000600052603260045260246000fd5b906000526020600020906007020160040160029054906101000a900473ffffffffffffffffffffffffffffffffffffffff1673ffffffffffffffffffffffffffffffffffffffff161461183857600080fd5b806040516020016118499190613e2e565b6040516020818303038152906040528051906020012060018381548110611899577f4e487b7100000000000000000000000000000000000000000000000000000000600052603260045260246000fd5b90600052602060002090600702016006016040516020016118ba9190613e45565b60405160208183030381529060405280519060200120146118da57600080fd5b6001808381548110611915577f4e487b7100000000000000000000000000000000000000000000000000000000600052603260045260246000fd5b906000526020600020906007020160040160016101000a81548160ff0219169083151502179055505050565b60008310158015611956575060018054905083105b61195f57600080fd5b3373ffffffffffffffffffffffffffffffffffffffff16600184815481106119b0577f4e487b7100000000000000000000000000000000000000000000000000000000600052603260045260246000fd5b906000526020600020906007020160040160029054906101000a900473ffffffffffffffffffffffffffffffffffffffff1673ffffffffffffffffffffffffffffffffffffffff1614611a0257600080fd5b8160018481548110611a3d577f4e487b7100000000000000000000000000000000000000000000000000000000600052603260045260246000fd5b906000526020600020906007020160040160026101000a81548173ffffffffffffffffffffffffffffffffffffffff021916908373ffffffffffffffffffffffffffffffffffffffff1602179055508060018481548110611ac7577f4e487b7100000000000000000000000000000000000000000000000000000000600052603260045260246000fd5b90600052602060002090600702016006019080519060200190611aeb92919061354d565b50505050565b611afa86613397565b15611b0457600080fd5b60026040518061010001604052808881526020018781526020018681526020018581526020018481526020018381526020016040518060200160405280600081525081526020016040518060200160405280600081525081525090806001815401808255809150506001900390600052602060002090600802016000909190919091506000820151816000019080519060200190611ba392919061354d565b506020820151816001019080519060200190611bc092919061354d565b506040820151816002019080519060200190611bdd92919061354d565b506060820151816003019080519060200190611bfa92919061354d565b506080820151816004019080519060200190611c1792919061354d565b5060a0820151816005019080519060200190611c3492919061354d565b5060c0820151816006019080519060200190611c5192919061354d565b5060e0820151816007019080519060200190611c6e92919061354d565b505050505050505050565b60606001805480602002602001604051908101604052809291908181526020016000905b82821015612040578382906000526020600020906007020160405180610120016040529081600082018054611cd1906143fc565b80601f0160208091040260200160405190810160405280929190818152602001828054611cfd906143fc565b8015611d4a5780601f10611d1f57610100808354040283529160200191611d4a565b820191906000526020600020905b815481529060010190602001808311611d2d57829003601f168201915b50505050508152602001600182018054611d63906143fc565b80601f0160208091040260200160405190810160405280929190818152602001828054611d8f906143fc565b8015611ddc5780601f10611db157610100808354040283529160200191611ddc565b820191906000526020600020905b815481529060010190602001808311611dbf57829003601f168201915b50505050508152602001600282018054611df5906143fc565b80601f0160208091040260200160405190810160405280929190818152602001828054611e21906143fc565b8015611e6e5780601f10611e4357610100808354040283529160200191611e6e565b820191906000526020600020905b815481529060010190602001808311611e5157829003601f168201915b50505050508152602001600382018054611e87906143fc565b80601f0160208091040260200160405190810160405280929190818152602001828054611eb3906143fc565b8015611f005780601f10611ed557610100808354040283529160200191611f00565b820191906000526020600020905b815481529060010190602001808311611ee357829003601f168201915b505050505081526020016004820160009054906101000a900460ff161515151581526020016004820160019054906101000a900460ff161515151581526020016004820160029054906101000a900473ffffffffffffffffffffffffffffffffffffffff1673ffffffffffffffffffffffffffffffffffffffff1673ffffffffffffffffffffffffffffffffffffffff16815260200160058201548152602001600682018054611faf906143fc565b80601f0160208091040260200160405190810160405280929190818152602001828054611fdb906143fc565b80156120285780601f10611ffd57610100808354040283529160200191612028565b820191906000526020600020905b81548152906001019060200180831161200b57829003601f168201915b50505050508152505081526020019060010190611c9d565b50505050905090565b61205283613472565b1561205c57600080fd5b60016040518061012001604052808681526020018581526020018481526020018381526020016000151581526020016000151581526020013373ffffffffffffffffffffffffffffffffffffffff1681526020016001805490508152602001604051806020016040528060008152508152509080600181540180825580915050600190039060005260206000209060070201600090919091909150600082015181600001908051906020019061211392919061354d565b50602082015181600101908051906020019061213092919061354d565b50604082015181600201908051906020019061214d92919061354d565b50606082015181600301908051906020019061216a92919061354d565b5060808201518160040160006101000a81548160ff02191690831515021790555060a08201518160040160016101000a81548160ff02191690831515021790555060c08201518160040160026101000a81548173ffffffffffffffffffffffffffffffffffffffff021916908373ffffffffffffffffffffffffffffffffffffffff16021790555060e0820151816005015561010082015181600601908051906020019061221992919061354d565b50505060008081548092919061222e9061442e565b919050555050505050565b6060600060018054905067ffffffffffffffff811115612282577f4e487b7100000000000000000000000000000000000000000000000000000000600052604160045260246000fd5b6040519080825280602002602001820160405280156122b557816020015b60608152602001906001900390816122a05790505b509050600060018054905067ffffffffffffffff8111156122ff577f4e487b7100000000000000000000000000000000000000000000000000000000600052604160045260246000fd5b60405190808252806020026020018201604052801561233257816020015b606081526020019060019003908161231d5790505b509050600060018054905067ffffffffffffffff81111561237c577f4e487b7100000000000000000000000000000000000000000000000000000000600052604160045260246000fd5b6040519080825280602002602001820160405280156123af57816020015b606081526020019060019003908161239a5790505b509050600060018054905067ffffffffffffffff8111156123f9577f4e487b7100000000000000000000000000000000000000000000000000000000600052604160045260246000fd5b60405190808252806020026020018201604052801561242c57816020015b60608152602001906001900390816124175790505b50905060005b6001805490508110156128b25760018181548110612479577f4e487b7100000000000000000000000000000000000000000000000000000000600052603260045260246000fd5b90600052602060002090600702016000018054612495906143fc565b80601f01602080910402602001604051908101604052809291908181526020018280546124c1906143fc565b801561250e5780601f106124e35761010080835404028352916020019161250e565b820191906000526020600020905b8154815290600101906020018083116124f157829003601f168201915b505050505085828151811061254c577f4e487b7100000000000000000000000000000000000000000000000000000000600052603260045260246000fd5b602002602001018190525060018181548110612591577f4e487b7100000000000000000000000000000000000000000000000000000000600052603260045260246000fd5b906000526020600020906007020160010180546125ad906143fc565b80601f01602080910402602001604051908101604052809291908181526020018280546125d9906143fc565b80156126265780601f106125fb57610100808354040283529160200191612626565b820191906000526020600020905b81548152906001019060200180831161260957829003601f168201915b5050505050848281518110612664577f4e487b7100000000000000000000000000000000000000000000000000000000600052603260045260246000fd5b6020026020010181905250600181815481106126a9577f4e487b7100000000000000000000000000000000000000000000000000000000600052603260045260246000fd5b906000526020600020906007020160020180546126c5906143fc565b80601f01602080910402602001604051908101604052809291908181526020018280546126f1906143fc565b801561273e5780601f106127135761010080835404028352916020019161273e565b820191906000526020600020905b81548152906001019060200180831161272157829003601f168201915b505050505083828151811061277c577f4e487b7100000000000000000000000000000000000000000000000000000000600052603260045260246000fd5b6020026020010181905250600181815481106127c1577f4e487b7100000000000000000000000000000000000000000000000000000000600052603260045260246000fd5b906000526020600020906007020160030180546127dd906143fc565b80601f0160208091040260200160405190810160405280929190818152602001828054612809906143fc565b80156128565780601f1061282b57610100808354040283529160200191612856565b820191906000526020600020905b81548152906001019060200180831161283957829003601f168201915b5050505050828281518110612894577f4e487b7100000000000000000000000000000000000000000000000000000000600052603260045260246000fd5b602002602001018190525080806128aa9061442e565b915050612432565b50838383836040516020016128ca9493929190613e5c565b60405160208183030381529060405294505050505090565b60008083101580156128f8575060018054905083105b61290157600080fd5b600015156001848154811061293f577f4e487b7100000000000000000000000000000000000000000000000000000000600052603260045260246000fd5b906000526020600020906007020160040160019054906101000a900460ff1615151461296a57600080fd5b60018084815481106129a5577f4e487b7100000000000000000000000000000000000000000000000000000000600052603260045260246000fd5b906000526020600020906007020160040160006101000a81548160ff0219169083151502179055503360018481548110612a08577f4e487b7100000000000000000000000000000000000000000000000000000000600052603260045260246000fd5b906000526020600020906007020160040160026101000a81548173ffffffffffffffffffffffffffffffffffffffff021916908373ffffffffffffffffffffffffffffffffffffffff1602179055508160018481548110612a92577f4e487b7100000000000000000000000000000000000000000000000000000000600052603260045260246000fd5b90600052602060002090600702016006019080519060200190612ab692919061354d565b5082905092915050565b6060806060806000606060018781548110612b04577f4e487b7100000000000000000000000000000000000000000000000000000000600052603260045260246000fd5b906000526020600020906007020160000160018881548110612b4f577f4e487b7100000000000000000000000000000000000000000000000000000000600052603260045260246000fd5b906000526020600020906007020160010160018981548110612b9a577f4e487b7100000000000000000000000000000000000000000000000000000000600052603260045260246000fd5b906000526020600020906007020160020160018a81548110612be5577f4e487b7100000000000000000000000000000000000000000000000000000000600052603260045260246000fd5b906000526020600020906007020160030160018b81548110612c30577f4e487b7100000000000000000000000000000000000000000000000000000000600052603260045260246000fd5b906000526020600020906007020160040160019054906101000a900460ff1660018c81548110612c89577f4e487b7100000000000000000000000000000000000000000000000000000000600052603260045260246000fd5b9060005260206000209060070201600601858054612ca6906143fc565b80601f0160208091040260200160405190810160405280929190818152602001828054612cd2906143fc565b8015612d1f5780601f10612cf457610100808354040283529160200191612d1f565b820191906000526020600020905b815481529060010190602001808311612d0257829003601f168201915b50505050509550848054612d32906143fc565b80601f0160208091040260200160405190810160405280929190818152602001828054612d5e906143fc565b8015612dab5780601f10612d8057610100808354040283529160200191612dab565b820191906000526020600020905b815481529060010190602001808311612d8e57829003601f168201915b50505050509450838054612dbe906143fc565b80601f0160208091040260200160405190810160405280929190818152602001828054612dea906143fc565b8015612e375780601f10612e0c57610100808354040283529160200191612e37565b820191906000526020600020905b815481529060010190602001808311612e1a57829003601f168201915b50505050509350828054612e4a906143fc565b80601f0160208091040260200160405190810160405280929190818152602001828054612e76906143fc565b8015612ec35780601f10612e9857610100808354040283529160200191612ec3565b820191906000526020600020905b815481529060010190602001808311612ea657829003601f168201915b50505050509250808054612ed6906143fc565b80601f0160208091040260200160405190810160405280929190818152602001828054612f02906143fc565b8015612f4f5780601f10612f2457610100808354040283529160200191612f4f565b820191906000526020600020905b815481529060010190602001808311612f3257829003601f168201915b5050505050905095509550955095509550955091939550919395565b60608060608060008060018781548110612fae577f4e487b7100000000000000000000000000000000000000000000000000000000600052603260045260246000fd5b906000526020600020906007020160000160018881548110612ff9577f4e487b7100000000000000000000000000000000000000000000000000000000600052603260045260246000fd5b906000526020600020906007020160010160018981548110613044577f4e487b7100000000000000000000000000000000000000000000000000000000600052603260045260246000fd5b906000526020600020906007020160020160018a8154811061308f577f4e487b7100000000000000000000000000000000000000000000000000000000600052603260045260246000fd5b906000526020600020906007020160030160018b815481106130da577f4e487b7100000000000000000000000000000000000000000000000000000000600052603260045260246000fd5b906000526020600020906007020160040160009054906101000a900460ff1660018c81548110613133577f4e487b7100000000000000000000000000000000000000000000000000000000600052603260045260246000fd5b906000526020600020906007020160040160019054906101000a900460ff1685805461315e906143fc565b80601f016020809104026020016040519081016040528092919081815260200182805461318a906143fc565b80156131d75780601f106131ac576101008083540402835291602001916131d7565b820191906000526020600020905b8154815290600101906020018083116131ba57829003601f168201915b505050505095508480546131ea906143fc565b80601f0160208091040260200160405190810160405280929190818152602001828054613216906143fc565b80156132635780601f1061323857610100808354040283529160200191613263565b820191906000526020600020905b81548152906001019060200180831161324657829003601f168201915b50505050509450838054613276906143fc565b80601f01602080910402602001604051908101604052809291908181526020018280546132a2906143fc565b80156132ef5780601f106132c4576101008083540402835291602001916132ef565b820191906000526020600020905b8154815290600101906020018083116132d257829003601f168201915b50505050509350828054613302906143fc565b80601f016020809104026020016040519081016040528092919081815260200182805461332e906143fc565b801561337b5780601f106133505761010080835404028352916020019161337b565b820191906000526020600020905b81548152906001019060200180831161335e57829003601f168201915b5050505050925095509550955095509550955091939550919395565b600080600090505b60028054905081101561346757826040516020016133bd9190613e2e565b604051602081830303815290604052805190602001206002828154811061340d577f4e487b7100000000000000000000000000000000000000000000000000000000600052603260045260246000fd5b906000526020600020906008020160000160405160200161342e9190613e45565b60405160208183030381529060405280519060200120141561345457600191505061346d565b808061345f9061442e565b91505061339f565b50600090505b919050565b600080600090505b60018054905081101561354257826040516020016134989190613e2e565b60405160208183030381529060405280519060200120600182815481106134e8577f4e487b7100000000000000000000000000000000000000000000000000000000600052603260045260246000fd5b90600052602060002090600702016001016040516020016135099190613e45565b60405160208183030381529060405280519060200120141561352f576001915050613548565b808061353a9061442e565b91505061347a565b50600090505b919050565b828054613559906143fc565b90600052602060002090601f01602090048101928261357b57600085556135c2565b82601f1061359457805160ff19168380011785556135c2565b828001600101855582156135c2579182015b828111156135c15782518255916020019190600101906135a6565b5b5090506135cf91906135d3565b5090565b5b808211156135ec5760008160009055506001016135d4565b5090565b60006136036135fe84614267565b614236565b90508281526020810184848401111561361b57600080fd5b6136268482856143ba565b509392505050565b60008135905061363d81614515565b92915050565b600082601f83011261365457600080fd5b81356136648482602086016135f0565b91505092915050565b60008135905061367c8161452c565b92915050565b60006020828403121561369457600080fd5b600082013567ffffffffffffffff8111156136ae57600080fd5b6136ba84828501613643565b91505092915050565b600080604083850312156136d657600080fd5b600083013567ffffffffffffffff8111156136f057600080fd5b6136fc85828601613643565b925050602083013567ffffffffffffffff81111561371957600080fd5b61372585828601613643565b9150509250929050565b60008060006060848603121561374457600080fd5b600084013567ffffffffffffffff81111561375e57600080fd5b61376a86828701613643565b935050602084013567ffffffffffffffff81111561378757600080fd5b61379386828701613643565b925050604084013567ffffffffffffffff8111156137b057600080fd5b6137bc86828701613643565b9150509250925092565b600080600080608085870312156137dc57600080fd5b600085013567ffffffffffffffff8111156137f657600080fd5b61380287828801613643565b945050602085013567ffffffffffffffff81111561381f57600080fd5b61382b87828801613643565b935050604085013567ffffffffffffffff81111561384857600080fd5b61385487828801613643565b925050606085013567ffffffffffffffff81111561387157600080fd5b61387d87828801613643565b91505092959194509250565b60008060008060008060c087890312156138a257600080fd5b600087013567ffffffffffffffff8111156138bc57600080fd5b6138c889828a01613643565b965050602087013567ffffffffffffffff8111156138e557600080fd5b6138f189828a01613643565b955050604087013567ffffffffffffffff81111561390e57600080fd5b61391a89828a01613643565b945050606087013567ffffffffffffffff81111561393757600080fd5b61394389828a01613643565b935050608087013567ffffffffffffffff81111561396057600080fd5b61396c89828a01613643565b92505060a087013567ffffffffffffffff81111561398957600080fd5b61399589828a01613643565b9150509295509295509295565b6000602082840312156139b457600080fd5b60006139c28482850161366d565b91505092915050565b6000806000606084860312156139e057600080fd5b60006139ee8682870161366d565b93505060206139ff8682870161362e565b925050604084013567ffffffffffffffff811115613a1c57600080fd5b613a2886828701613643565b9150509250925092565b60008060408385031215613a4557600080fd5b6000613a538582860161366d565b925050602083013567ffffffffffffffff811115613a7057600080fd5b613a7c85828601613643565b9150509250929050565b6000613a928383613c0d565b905092915050565b6000613aa68383613d2f565b905092915050565b613ab781614372565b82525050565b613ac681614372565b82525050565b6000613ad7826142cc565b613ae18185614312565b935083602082028501613af385614297565b8060005b85811015613b2f5784840389528151613b108582613a86565b9450613b1b836142f8565b925060208a01995050600181019050613af7565b50829750879550505050505092915050565b6000613b4c826142d7565b613b568185614323565b935083602082028501613b68856142a7565b8060005b85811015613ba45784840389528151613b858582613a9a565b9450613b9083614305565b925060208a01995050600181019050613b6c565b50829750879550505050505092915050565b613bbf81614384565b82525050565b613bce81614384565b82525050565b6000613bdf826142e2565b613be98185614334565b9350613bf98185602086016143c9565b613c0281614504565b840191505092915050565b6000613c18826142ed565b613c228185614345565b9350613c328185602086016143c9565b613c3b81614504565b840191505092915050565b6000613c51826142ed565b613c5b8185614356565b9350613c6b8185602086016143c9565b613c7481614504565b840191505092915050565b6000613c8a826142ed565b613c948185614367565b9350613ca48185602086016143c9565b80840191505092915050565b60008154613cbd816143fc565b613cc78186614367565b94506001821660008114613ce25760018114613cf357613d26565b60ff19831686528186019350613d26565b613cfc856142b7565b60005b83811015613d1e57815481890152600182019150602081019050613cff565b838801955050505b50505092915050565b6000610120830160008301518482036000860152613d4d8282613c0d565b91505060208301518482036020860152613d678282613c0d565b91505060408301518482036040860152613d818282613c0d565b91505060608301518482036060860152613d9b8282613c0d565b9150506080830151613db06080860182613bb6565b5060a0830151613dc360a0860182613bb6565b5060c0830151613dd660c0860182613aae565b5060e0830151613de960e0860182613e10565b50610100830151848203610100860152613e038282613c0d565b9150508091505092915050565b613e19816143b0565b82525050565b613e28816143b0565b82525050565b6000613e3a8284613c7f565b915081905092915050565b6000613e518284613cb0565b915081905092915050565b60006080820190508181036000830152613e768187613acc565b90508181036020830152613e8a8186613acc565b90508181036040830152613e9e8185613acc565b90508181036060830152613eb28184613acc565b905095945050505050565b60006020820190508181036000830152613ed78184613b41565b905092915050565b6000602082019050613ef46000830184613bc5565b92915050565b60006020820190508181036000830152613f148184613bd4565b905092915050565b60006040820190508181036000830152613f368185613c46565b90508181036020830152613f4a8184613c46565b90509392505050565b60006080820190508181036000830152613f6d8187613c46565b90508181036020830152613f818186613c46565b90508181036040830152613f958185613c46565b90508181036060830152613fa98184613c46565b905095945050505050565b600060c0820190508181036000830152613fce8189613c46565b90508181036020830152613fe28188613c46565b90508181036040830152613ff68187613c46565b9050818103606083015261400a8186613c46565b90506140196080830185613bc5565b61402660a0830184613bc5565b979650505050505050565b600061012082019050818103600083015261404c818c613c46565b90508181036020830152614060818b613c46565b90508181036040830152614074818a613c46565b905081810360608301526140888189613c46565b90506140976080830188613bc5565b6140a460a0830187613bc5565b6140b160c0830186613abd565b6140be60e0830185613e1f565b8181036101008301526140d18184613c46565b90509a9950505050505050505050565b600060c08201905081810360008301526140fb8189613c46565b9050818103602083015261410f8188613c46565b905081810360408301526141238187613c46565b905081810360608301526141378186613c46565b90506141466080830185613bc5565b81810360a08301526141588184613c46565b9050979650505050505050565b6000610100820190508181036000830152614180818b613c46565b90508181036020830152614194818a613c46565b905081810360408301526141a88189613c46565b905081810360608301526141bc8188613c46565b905081810360808301526141d08187613c46565b905081810360a08301526141e48186613c46565b905081810360c08301526141f88185613c46565b905081810360e083015261420c8184613c46565b90509998505050505050505050565b60006020820190506142306000830184613e1f565b92915050565b6000604051905081810181811067ffffffffffffffff8211171561425d5761425c6144d5565b5b8060405250919050565b600067ffffffffffffffff821115614282576142816144d5565b5b601f19601f8301169050602081019050919050565b6000819050602082019050919050565b6000819050602082019050919050565b60008190508160005260206000209050919050565b600081519050919050565b600081519050919050565b600081519050919050565b600081519050919050565b6000602082019050919050565b6000602082019050919050565b600082825260208201905092915050565b600082825260208201905092915050565b600082825260208201905092915050565b600082825260208201905092915050565b600082825260208201905092915050565b600081905092915050565b600061437d82614390565b9050919050565b60008115159050919050565b600073ffffffffffffffffffffffffffffffffffffffff82169050919050565b6000819050919050565b82818337600083830152505050565b60005b838110156143e75780820151818401526020810190506143cc565b838111156143f6576000848401525b50505050565b6000600282049050600182168061441457607f821691505b60208210811415614428576144276144a6565b5b50919050565b6000614439826143b0565b91507fffffffffffffffffffffffffffffffffffffffffffffffffffffffffffffffff82141561446c5761446b614477565b5b600182019050919050565b7f4e487b7100000000000000000000000000000000000000000000000000000000600052601160045260246000fd5b7f4e487b7100000000000000000000000000000000000000000000000000000000600052602260045260246000fd5b7f4e487b7100000000000000000000000000000000000000000000000000000000600052604160045260246000fd5b6000601f19601f8301169050919050565b61451e81614372565b811461452957600080fd5b50565b614535816143b0565b811461454057600080fd5b5056fea2646970667358221220678a2648b048f27d66f47732d9d5d17dca058e5ec20bf402c9f797ff888a387a64736f6c63430008000033",
  "immutableReferences": {},
  "source": "// SPDX-License-Identifier: MIT\r\npragma solidity >=0.4.22 <0.9.0;\r\n// pragma experimental ABIEncoderV2;\r\n\r\ncontract MobileDevice {\r\n    // address[16] public sold;\r\n    // address[16] public lost;\r\n    uint256 public deviceCount;\r\n\r\n    struct device {\r\n        string name;\r\n        string imei;\r\n        string location;\r\n        string imageUrl;\r\n        bool sold;\r\n        bool lost;\r\n        address owner;\r\n        uint deviceId;\r\n        string email;\r\n    }\r\n    device[] public devices;\r\n\r\n    struct user {\r\n        //email, password, address, country, zip, name;\r\n        string email;\r\n        string password;\r\n        string address_;\r\n        string country;\r\n        string zip;\r\n        string name;\r\n        string lat;\r\n        string lon;\r\n    }\r\n    user[] public users;\r\n\r\n    // struct location {\r\n    //     string email;\r\n    //     string lat;\r\n    //     string lon;\r\n    // }\r\n    // location[] public locations;\r\n\r\n    function updateLocation(string memory email, string memory lat, string memory lon) public{\r\n        for (uint i = 0; i < users.length; i++) {\r\n            if (keccak256(abi.encodePacked((users[i].email))) == keccak256(abi.encodePacked((email)))){\r\n                users[i].lat = lat;\r\n                users[i].lon = lon;\r\n            }\r\n        }\r\n    }\r\n\r\n    function returnLocation(string memory email) public view returns (string memory, string memory) {\r\n        for (uint i = 0; i < users.length; i++) {\r\n            if (keccak256(abi.encodePacked((users[i].email))) == keccak256(abi.encodePacked((email)))){\r\n                return (users[i].lat, users[i].lon);\r\n            }\r\n        }\r\n        return (\"\", \"\");\r\n    }\r\n\r\n    function checkEmailExists(string memory email) internal view returns (bool) {\r\n        for (uint i = 0; i < users.length; i++) {\r\n            if (keccak256(abi.encodePacked((users[i].email))) == keccak256(abi.encodePacked((email)))) {\r\n                return true;\r\n            }\r\n        }\r\n        return false;\r\n    }\r\n\r\n    function registerUser(string memory email, string memory password, string memory address_, string memory country, string memory zip, string memory name) public {\r\n        require(!checkEmailExists(email));\r\n        users.push(user({\r\n            email: email,\r\n            password: password,\r\n            address_: address_,\r\n            country: country,\r\n            zip: zip,\r\n            name: name,\r\n            lat: \"\",\r\n            lon: \"\"\r\n        }));\r\n    }\r\n\r\n    function loginUser(string memory email, string memory password) public view returns (bool) {\r\n        for (uint i = 0; i < users.length; i++) {\r\n            if (keccak256(abi.encodePacked((users[i].email))) == keccak256(abi.encodePacked((email))) && keccak256(abi.encodePacked((users[i].password))) == keccak256(abi.encodePacked((password))) ) {\r\n                return true;\r\n            }\r\n        }\r\n        return false;\r\n    }\r\n\r\n    //retrun user details like name, address, country, zip = taking email as input\r\n    function userDetails(string memory email) public view returns (string memory, string memory, string memory, string memory) {\r\n        for (uint i = 0; i < users.length; i++) {\r\n            if (keccak256(abi.encodePacked((users[i].email))) == keccak256(abi.encodePacked((email))) ) {\r\n                return (users[i].name, users[i].address_, users[i].country, users[i].zip);\r\n            }\r\n        }\r\n        return (\"\", \"\", \"\", \"\");\r\n    }\r\n\r\n    function checkImeiExists(string memory imei) internal view returns (bool) {\r\n        for (uint i = 0; i < devices.length; i++) {\r\n            if (keccak256(abi.encodePacked((devices[i].imei))) == keccak256(abi.encodePacked((imei)))) {\r\n                return true;\r\n            }\r\n        }\r\n        return false;\r\n    }\r\n\r\n    function registerDevice(string memory name_, string memory imei, string memory location, string memory imageUrl) public {\r\n        require(!checkImeiExists(imei));\r\n        devices.push(device({\r\n            name: name_,\r\n            imei: imei,\r\n            location: location,\r\n            imageUrl: imageUrl,\r\n            sold: false,\r\n            lost: false,\r\n            owner: msg.sender,\r\n            deviceId: devices.length,\r\n            email: \"\"\r\n        }));\r\n        deviceCount++;\r\n    }\r\n\r\n\r\n    function purchase(uint deviceId, string memory email) public returns (uint) {\r\n        require(deviceId >= 0 && deviceId < devices.length);\r\n        require(devices[deviceId].lost == false);\r\n        devices[deviceId].sold = true;\r\n        devices[deviceId].owner = msg.sender;\r\n        devices[deviceId].email = email;\r\n        // sold[deviceId] = msg.sender;\r\n        return deviceId;\r\n    }\r\n\r\n    // function getDevice() public view returns (address[16] memory) {\r\n    //     return sold;\r\n    // }\r\n\r\n    function markLost(uint deviceId, string memory email) public {\r\n        // require(deviceId >= 0 && deviceId <= 15);\r\n        require(deviceId >=0 && deviceId < devices.length);\r\n        require(devices[deviceId].sold == true);\r\n        require(devices[deviceId].owner == msg.sender);\r\n        require(keccak256(abi.encodePacked((devices[deviceId].email))) == keccak256(abi.encodePacked((email))));\r\n        devices[deviceId].lost = true;\r\n        // sold[deviceId] = address(0);\r\n        // lost[deviceId] = msg.sender;\r\n    }\r\n\r\n    // function getLost() public view returns (address[16] memory) {\r\n    //     return lost;\r\n    // }\r\n\r\n    function isDeviceLost(uint256 deviceId) public view returns (bool) {\r\n        return devices[deviceId].lost == true;\r\n    }\r\n\r\n    function isDeviceSold(uint256 deviceId) public view returns (bool) {\r\n        return devices[deviceId].sold == true;\r\n    }\r\n    \r\n    function device_Count() public view returns (uint256) {\r\n        return deviceCount;\r\n    }\r\n\r\n    function getRDevice(uint index) public view returns (string memory, string memory, string memory, string memory, bool, bool) {\r\n        return (devices[index].name, devices[index].imei, devices[index].location, devices[index].imageUrl, devices[index].sold, devices[index].lost);\r\n    }\r\n\r\n    function getRHomeDevice(uint index) public view returns (string memory, string memory, string memory, string memory, bool, string memory) {\r\n        return (devices[index].name, devices[index].imei, devices[index].location, devices[index].imageUrl, devices[index].lost, devices[index].email);\r\n    }\r\n    // return registered devices encoded as caver.abi.encodeParameters. dont't use encodePacked(). use caver.abi.encodeParameters\r\n    function getRegisteredDevices() public view returns (bytes memory) {\r\n        string[] memory names = new string[](devices.length);\r\n        string[] memory imeis = new string[](devices.length);\r\n        string[] memory locations = new string[](devices.length);\r\n        string[] memory imageUrls = new string[](devices.length);\r\n\r\n        for (uint i = 0; i < devices.length; i++) {\r\n            names[i] = devices[i].name;\r\n            imeis[i] = devices[i].imei;\r\n            locations[i] = devices[i].location;\r\n            imageUrls[i] = devices[i].imageUrl;\r\n        }\r\n        return abi.encode(names, imeis, locations, imageUrls);\r\n    }\r\n    function getRDevices() public view returns (device[] memory) {\r\n        return devices;\r\n    }\r\n\r\n    function transferOwnership(uint256 deviceId, address newOwner, string memory email) public {\r\n        require(deviceId >= 0 && deviceId < devices.length);\r\n        require(devices[deviceId].owner == msg.sender);\r\n        // require(keccak256(abi.encodePacked((devices[deviceId].email))) == keccak256(abi.encodePacked((email))));\r\n        devices[deviceId].owner = newOwner;\r\n        devices[deviceId].email = email;\r\n    }\r\n\r\n}",
  "sourcePath": "F:\\M. Tech CSIS\\2nd Semester\\Blockchain\\Project Work\\code\\contracts\\MobileDevice.sol",
  "compiler": {
    "name": "solc",
    "version": "0.8.0+commit.c7dfd78e.Emscripten.clang"
  },
  "schemaVersion": "3.4.16",
  "updatedAt": "2024-04-15T19:43:13.037Z",
  "devdoc": {
    "kind": "dev",
    "methods": {},
    "version": 1
  },
  "userdoc": {
    "kind": "user",
    "methods": {},
    "version": 1
  }
}