{
  "contractName": "MobileDevice",
  "abi": [
    {
      "inputs": [],
      "name": "deviceCount",
      "outputs": [
        {
          "internalType": "uint256",
          "name": "",
          "type": "uint256"
        }
      ],
      "stateMutability": "view",
      "type": "function"
    },
    {
      "inputs": [
        {
          "internalType": "uint256",
          "name": "",
          "type": "uint256"
        }
      ],
      "name": "devices",
      "outputs": [
        {
          "internalType": "string",
          "name": "name",
          "type": "string"
        },
        {
          "internalType": "string",
          "name": "imei",
          "type": "string"
        },
        {
          "internalType": "string",
          "name": "location",
          "type": "string"
        },
        {
          "internalType": "string",
          "name": "imageUrl",
          "type": "string"
        },
        {
          "internalType": "bool",
          "name": "sold",
          "type": "bool"
        },
        {
          "internalType": "bool",
          "name": "lost",
          "type": "bool"
        },
        {
          "internalType": "address",
          "name": "owner",
          "type": "address"
        },
        {
          "internalType": "uint256",
          "name": "deviceId",
          "type": "uint256"
        }
      ],
      "stateMutability": "view",
      "type": "function"
    },
    {
      "inputs": [
        {
          "internalType": "string",
          "name": "name_",
          "type": "string"
        },
        {
          "internalType": "string",
          "name": "imei",
          "type": "string"
        },
        {
          "internalType": "string",
          "name": "location",
          "type": "string"
        },
        {
          "internalType": "string",
          "name": "imageUrl",
          "type": "string"
        }
      ],
      "name": "registerDevice",
      "outputs": [],
      "stateMutability": "nonpayable",
      "type": "function"
    },
    {
      "inputs": [
        {
          "internalType": "uint256",
          "name": "deviceId",
          "type": "uint256"
        }
      ],
      "name": "purchase",
      "outputs": [
        {
          "internalType": "uint256",
          "name": "",
          "type": "uint256"
        }
      ],
      "stateMutability": "nonpayable",
      "type": "function"
    },
    {
      "inputs": [
        {
          "internalType": "uint256",
          "name": "deviceId",
          "type": "uint256"
        }
      ],
      "name": "markLost",
      "outputs": [],
      "stateMutability": "nonpayable",
      "type": "function"
    },
    {
      "inputs": [
        {
          "internalType": "uint256",
          "name": "deviceId",
          "type": "uint256"
        }
      ],
      "name": "isDeviceLost",
      "outputs": [
        {
          "internalType": "bool",
          "name": "",
          "type": "bool"
        }
      ],
      "stateMutability": "view",
      "type": "function"
    },
    {
      "inputs": [
        {
          "internalType": "uint256",
          "name": "deviceId",
          "type": "uint256"
        }
      ],
      "name": "isDeviceSold",
      "outputs": [
        {
          "internalType": "bool",
          "name": "",
          "type": "bool"
        }
      ],
      "stateMutability": "view",
      "type": "function"
    },
    {
      "inputs": [],
      "name": "device_Count",
      "outputs": [
        {
          "internalType": "uint256",
          "name": "",
          "type": "uint256"
        }
      ],
      "stateMutability": "view",
      "type": "function"
    },
    {
      "inputs": [
        {
          "internalType": "uint256",
          "name": "index",
          "type": "uint256"
        }
      ],
      "name": "getRDevice",
      "outputs": [
        {
          "internalType": "string",
          "name": "",
          "type": "string"
        },
        {
          "internalType": "string",
          "name": "",
          "type": "string"
        },
        {
          "internalType": "string",
          "name": "",
          "type": "string"
        },
        {
          "internalType": "string",
          "name": "",
          "type": "string"
        },
        {
          "internalType": "bool",
          "name": "",
          "type": "bool"
        },
        {
          "internalType": "bool",
          "name": "",
          "type": "bool"
        }
      ],
      "stateMutability": "view",
      "type": "function"
    },
    {
      "inputs": [],
      "name": "getRegisteredDevices",
      "outputs": [
        {
          "internalType": "bytes",
          "name": "",
          "type": "bytes"
        }
      ],
      "stateMutability": "view",
      "type": "function"
    },
    {
      "inputs": [],
      "name": "getRDevices",
      "outputs": [
        {
          "components": [
            {
              "internalType": "string",
              "name": "name",
              "type": "string"
            },
            {
              "internalType": "string",
              "name": "imei",
              "type": "string"
            },
            {
              "internalType": "string",
              "name": "location",
              "type": "string"
            },
            {
              "internalType": "string",
              "name": "imageUrl",
              "type": "string"
            },
            {
              "internalType": "bool",
              "name": "sold",
              "type": "bool"
            },
            {
              "internalType": "bool",
              "name": "lost",
              "type": "bool"
            },
            {
              "internalType": "address",
              "name": "owner",
              "type": "address"
            },
            {
              "internalType": "uint256",
              "name": "deviceId",
              "type": "uint256"
            }
          ],
          "internalType": "struct MobileDevice.device[]",
          "name": "",
          "type": "tuple[]"
        }
      ],
      "stateMutability": "view",
      "type": "function"
    }
  ],
  "bytecode": "0x608060405234801561001057600080fd5b50612489806100206000396000f3fe608060405234801561001057600080fd5b50600436106100a95760003560e01c8063535bca9a11610071578063535bca9a1461017f5780638ce898471461019d578063cecfe084146101bb578063d147f95c146101d7578063efef39a1146101f5578063f756d55714610225576100a9565b8063018938f3146100ae57806310ff8e31146100de57806311d8cfe4146101155780631da559fe146101335780634458b23114610163575b600080fd5b6100c860048036038101906100c39190611b88565b61025a565b6040516100d59190611fee565b60405180910390f35b6100f860048036038101906100f39190611b88565b6102c3565b60405161010c9897969594939291906120a8565b60405180910390f35b61011d610575565b60405161012a9190612142565b60405180910390f35b61014d60048036038101906101489190611b88565b61057e565b60405161015a9190611fee565b60405180910390f35b61017d60048036038101906101789190611b88565b6105e7565b005b610187610777565b6040516101949190612142565b60405180910390f35b6101a561077d565b6040516101b29190611fcc565b60405180910390f35b6101d560048036038101906101d09190611ac5565b610abb565b005b6101df610c78565b6040516101ec9190612009565b60405180910390f35b61020f600480360381019061020a9190611b88565b611321565b60405161021c9190612142565b60405180910390f35b61023f600480360381019061023a9190611b88565b61149e565b6040516102519695949392919061202b565b60405180910390f35b6000600115156001838154811061029a577f4e487b7100000000000000000000000000000000000000000000000000000000600052603260045260246000fd5b906000526020600020906006020160040160019054906101000a900460ff161515149050919050565b600181815481106102d357600080fd5b90600052602060002090600602016000915090508060000180546102f690612323565b80601f016020809104026020016040519081016040528092919081815260200182805461032290612323565b801561036f5780601f106103445761010080835404028352916020019161036f565b820191906000526020600020905b81548152906001019060200180831161035257829003601f168201915b50505050509080600101805461038490612323565b80601f01602080910402602001604051908101604052809291908181526020018280546103b090612323565b80156103fd5780601f106103d2576101008083540402835291602001916103fd565b820191906000526020600020905b8154815290600101906020018083116103e057829003601f168201915b50505050509080600201805461041290612323565b80601f016020809104026020016040519081016040528092919081815260200182805461043e90612323565b801561048b5780601f106104605761010080835404028352916020019161048b565b820191906000526020600020905b81548152906001019060200180831161046e57829003601f168201915b5050505050908060030180546104a090612323565b80601f01602080910402602001604051908101604052809291908181526020018280546104cc90612323565b80156105195780601f106104ee57610100808354040283529160200191610519565b820191906000526020600020905b8154815290600101906020018083116104fc57829003601f168201915b5050505050908060040160009054906101000a900460ff16908060040160019054906101000a900460ff16908060040160029054906101000a900473ffffffffffffffffffffffffffffffffffffffff16908060050154905088565b60008054905090565b600060011515600183815481106105be577f4e487b7100000000000000000000000000000000000000000000000000000000600052603260045260246000fd5b906000526020600020906006020160040160009054906101000a900460ff161515149050919050565b600081101580156105fc575060018054905081105b61060557600080fd5b6001151560018281548110610643577f4e487b7100000000000000000000000000000000000000000000000000000000600052603260045260246000fd5b906000526020600020906006020160040160009054906101000a900460ff1615151461066e57600080fd5b3373ffffffffffffffffffffffffffffffffffffffff16600182815481106106bf577f4e487b7100000000000000000000000000000000000000000000000000000000600052603260045260246000fd5b906000526020600020906006020160040160029054906101000a900473ffffffffffffffffffffffffffffffffffffffff1673ffffffffffffffffffffffffffffffffffffffff161461071157600080fd5b600180828154811061074c577f4e487b7100000000000000000000000000000000000000000000000000000000600052603260045260246000fd5b906000526020600020906006020160040160016101000a81548160ff02191690831515021790555050565b60005481565b60606001805480602002602001604051908101604052809291908181526020016000905b82821015610ab25783829060005260206000209060060201604051806101000160405290816000820180546107d590612323565b80601f016020809104026020016040519081016040528092919081815260200182805461080190612323565b801561084e5780601f106108235761010080835404028352916020019161084e565b820191906000526020600020905b81548152906001019060200180831161083157829003601f168201915b5050505050815260200160018201805461086790612323565b80601f016020809104026020016040519081016040528092919081815260200182805461089390612323565b80156108e05780601f106108b5576101008083540402835291602001916108e0565b820191906000526020600020905b8154815290600101906020018083116108c357829003601f168201915b505050505081526020016002820180546108f990612323565b80601f016020809104026020016040519081016040528092919081815260200182805461092590612323565b80156109725780601f1061094757610100808354040283529160200191610972565b820191906000526020600020905b81548152906001019060200180831161095557829003601f168201915b5050505050815260200160038201805461098b90612323565b80601f01602080910402602001604051908101604052809291908181526020018280546109b790612323565b8015610a045780601f106109d957610100808354040283529160200191610a04565b820191906000526020600020905b8154815290600101906020018083116109e757829003601f168201915b505050505081526020016004820160009054906101000a900460ff161515151581526020016004820160019054906101000a900460ff161515151581526020016004820160029054906101000a900473ffffffffffffffffffffffffffffffffffffffff1673ffffffffffffffffffffffffffffffffffffffff1673ffffffffffffffffffffffffffffffffffffffff168152602001600582015481525050815260200190600101906107a1565b50505050905090565b610ac4836118ca565b15610ace57600080fd5b60016040518061010001604052808681526020018581526020018481526020018381526020016000151581526020016000151581526020013373ffffffffffffffffffffffffffffffffffffffff16815260200160018054905081525090806001815401808255809150506001900390600052602060002090600602016000909190919091506000820151816000019080519060200190610b709291906119a5565b506020820151816001019080519060200190610b8d9291906119a5565b506040820151816002019080519060200190610baa9291906119a5565b506060820151816003019080519060200190610bc79291906119a5565b5060808201518160040160006101000a81548160ff02191690831515021790555060a08201518160040160016101000a81548160ff02191690831515021790555060c08201518160040160026101000a81548173ffffffffffffffffffffffffffffffffffffffff021916908373ffffffffffffffffffffffffffffffffffffffff16021790555060e082015181600501555050600080815480929190610c6d90612355565b919050555050505050565b6060600060018054905067ffffffffffffffff811115610cc1577f4e487b7100000000000000000000000000000000000000000000000000000000600052604160045260246000fd5b604051908082528060200260200182016040528015610cf457816020015b6060815260200190600190039081610cdf5790505b509050600060018054905067ffffffffffffffff811115610d3e577f4e487b7100000000000000000000000000000000000000000000000000000000600052604160045260246000fd5b604051908082528060200260200182016040528015610d7157816020015b6060815260200190600190039081610d5c5790505b509050600060018054905067ffffffffffffffff811115610dbb577f4e487b7100000000000000000000000000000000000000000000000000000000600052604160045260246000fd5b604051908082528060200260200182016040528015610dee57816020015b6060815260200190600190039081610dd95790505b509050600060018054905067ffffffffffffffff811115610e38577f4e487b7100000000000000000000000000000000000000000000000000000000600052604160045260246000fd5b604051908082528060200260200182016040528015610e6b57816020015b6060815260200190600190039081610e565790505b50905060005b6001805490508110156112f15760018181548110610eb8577f4e487b7100000000000000000000000000000000000000000000000000000000600052603260045260246000fd5b90600052602060002090600602016000018054610ed490612323565b80601f0160208091040260200160405190810160405280929190818152602001828054610f0090612323565b8015610f4d5780601f10610f2257610100808354040283529160200191610f4d565b820191906000526020600020905b815481529060010190602001808311610f3057829003601f168201915b5050505050858281518110610f8b577f4e487b7100000000000000000000000000000000000000000000000000000000600052603260045260246000fd5b602002602001018190525060018181548110610fd0577f4e487b7100000000000000000000000000000000000000000000000000000000600052603260045260246000fd5b90600052602060002090600602016001018054610fec90612323565b80601f016020809104026020016040519081016040528092919081815260200182805461101890612323565b80156110655780601f1061103a57610100808354040283529160200191611065565b820191906000526020600020905b81548152906001019060200180831161104857829003601f168201915b50505050508482815181106110a3577f4e487b7100000000000000000000000000000000000000000000000000000000600052603260045260246000fd5b6020026020010181905250600181815481106110e8577f4e487b7100000000000000000000000000000000000000000000000000000000600052603260045260246000fd5b9060005260206000209060060201600201805461110490612323565b80601f016020809104026020016040519081016040528092919081815260200182805461113090612323565b801561117d5780601f106111525761010080835404028352916020019161117d565b820191906000526020600020905b81548152906001019060200180831161116057829003601f168201915b50505050508382815181106111bb577f4e487b7100000000000000000000000000000000000000000000000000000000600052603260045260246000fd5b602002602001018190525060018181548110611200577f4e487b7100000000000000000000000000000000000000000000000000000000600052603260045260246000fd5b9060005260206000209060060201600301805461121c90612323565b80601f016020809104026020016040519081016040528092919081815260200182805461124890612323565b80156112955780601f1061126a57610100808354040283529160200191611295565b820191906000526020600020905b81548152906001019060200180831161127857829003601f168201915b50505050508282815181106112d3577f4e487b7100000000000000000000000000000000000000000000000000000000600052603260045260246000fd5b602002602001018190525080806112e990612355565b915050610e71565b50838383836040516020016113099493929190611f6b565b60405160208183030381529060405294505050505090565b6000808210158015611337575060018054905082105b61134057600080fd5b600015156001838154811061137e577f4e487b7100000000000000000000000000000000000000000000000000000000600052603260045260246000fd5b906000526020600020906006020160040160019054906101000a900460ff161515146113a957600080fd5b60018083815481106113e4577f4e487b7100000000000000000000000000000000000000000000000000000000600052603260045260246000fd5b906000526020600020906006020160040160006101000a81548160ff0219169083151502179055503360018381548110611447577f4e487b7100000000000000000000000000000000000000000000000000000000600052603260045260246000fd5b906000526020600020906006020160040160026101000a81548173ffffffffffffffffffffffffffffffffffffffff021916908373ffffffffffffffffffffffffffffffffffffffff160217905550819050919050565b606080606080600080600187815481106114e1577f4e487b7100000000000000000000000000000000000000000000000000000000600052603260045260246000fd5b90600052602060002090600602016000016001888154811061152c577f4e487b7100000000000000000000000000000000000000000000000000000000600052603260045260246000fd5b906000526020600020906006020160010160018981548110611577577f4e487b7100000000000000000000000000000000000000000000000000000000600052603260045260246000fd5b906000526020600020906006020160020160018a815481106115c2577f4e487b7100000000000000000000000000000000000000000000000000000000600052603260045260246000fd5b906000526020600020906006020160030160018b8154811061160d577f4e487b7100000000000000000000000000000000000000000000000000000000600052603260045260246000fd5b906000526020600020906006020160040160009054906101000a900460ff1660018c81548110611666577f4e487b7100000000000000000000000000000000000000000000000000000000600052603260045260246000fd5b906000526020600020906006020160040160019054906101000a900460ff1685805461169190612323565b80601f01602080910402602001604051908101604052809291908181526020018280546116bd90612323565b801561170a5780601f106116df5761010080835404028352916020019161170a565b820191906000526020600020905b8154815290600101906020018083116116ed57829003601f168201915b5050505050955084805461171d90612323565b80601f016020809104026020016040519081016040528092919081815260200182805461174990612323565b80156117965780601f1061176b57610100808354040283529160200191611796565b820191906000526020600020905b81548152906001019060200180831161177957829003601f168201915b505050505094508380546117a990612323565b80601f01602080910402602001604051908101604052809291908181526020018280546117d590612323565b80156118225780601f106117f757610100808354040283529160200191611822565b820191906000526020600020905b81548152906001019060200180831161180557829003601f168201915b5050505050935082805461183590612323565b80601f016020809104026020016040519081016040528092919081815260200182805461186190612323565b80156118ae5780601f10611883576101008083540402835291602001916118ae565b820191906000526020600020905b81548152906001019060200180831161189157829003601f168201915b5050505050925095509550955095509550955091939550919395565b600080600090505b60018054905081101561199a57826040516020016118f09190611f3d565b6040516020818303038152906040528051906020012060018281548110611940577f4e487b7100000000000000000000000000000000000000000000000000000000600052603260045260246000fd5b90600052602060002090600602016001016040516020016119619190611f54565b6040516020818303038152906040528051906020012014156119875760019150506119a0565b808061199290612355565b9150506118d2565b50600090505b919050565b8280546119b190612323565b90600052602060002090601f0160209004810192826119d35760008555611a1a565b82601f106119ec57805160ff1916838001178555611a1a565b82800160010185558215611a1a579182015b82811115611a195782518255916020019190600101906119fe565b5b509050611a279190611a2b565b5090565b5b80821115611a44576000816000905550600101611a2c565b5090565b6000611a5b611a568461218e565b61215d565b905082815260208101848484011115611a7357600080fd5b611a7e8482856122e1565b509392505050565b600082601f830112611a9757600080fd5b8135611aa7848260208601611a48565b91505092915050565b600081359050611abf8161243c565b92915050565b60008060008060808587031215611adb57600080fd5b600085013567ffffffffffffffff811115611af557600080fd5b611b0187828801611a86565b945050602085013567ffffffffffffffff811115611b1e57600080fd5b611b2a87828801611a86565b935050604085013567ffffffffffffffff811115611b4757600080fd5b611b5387828801611a86565b925050606085013567ffffffffffffffff811115611b7057600080fd5b611b7c87828801611a86565b91505092959194509250565b600060208284031215611b9a57600080fd5b6000611ba884828501611ab0565b91505092915050565b6000611bbd8383611d38565b905092915050565b6000611bd18383611e5a565b905092915050565b611be281612299565b82525050565b611bf181612299565b82525050565b6000611c02826121f3565b611c0c8185612239565b935083602082028501611c1e856121be565b8060005b85811015611c5a5784840389528151611c3b8582611bb1565b9450611c468361221f565b925060208a01995050600181019050611c22565b50829750879550505050505092915050565b6000611c77826121fe565b611c81818561224a565b935083602082028501611c93856121ce565b8060005b85811015611ccf5784840389528151611cb08582611bc5565b9450611cbb8361222c565b925060208a01995050600181019050611c97565b50829750879550505050505092915050565b611cea816122ab565b82525050565b611cf9816122ab565b82525050565b6000611d0a82612209565b611d14818561225b565b9350611d248185602086016122f0565b611d2d8161242b565b840191505092915050565b6000611d4382612214565b611d4d818561226c565b9350611d5d8185602086016122f0565b611d668161242b565b840191505092915050565b6000611d7c82612214565b611d86818561227d565b9350611d968185602086016122f0565b611d9f8161242b565b840191505092915050565b6000611db582612214565b611dbf818561228e565b9350611dcf8185602086016122f0565b80840191505092915050565b60008154611de881612323565b611df2818661228e565b94506001821660008114611e0d5760018114611e1e57611e51565b60ff19831686528186019350611e51565b611e27856121de565b60005b83811015611e4957815481890152600182019150602081019050611e2a565b838801955050505b50505092915050565b6000610100830160008301518482036000860152611e788282611d38565b91505060208301518482036020860152611e928282611d38565b91505060408301518482036040860152611eac8282611d38565b91505060608301518482036060860152611ec68282611d38565b9150506080830151611edb6080860182611ce1565b5060a0830151611eee60a0860182611ce1565b5060c0830151611f0160c0860182611bd9565b5060e0830151611f1460e0860182611f1f565b508091505092915050565b611f28816122d7565b82525050565b611f37816122d7565b82525050565b6000611f498284611daa565b915081905092915050565b6000611f608284611ddb565b915081905092915050565b60006080820190508181036000830152611f858187611bf7565b90508181036020830152611f998186611bf7565b90508181036040830152611fad8185611bf7565b90508181036060830152611fc18184611bf7565b905095945050505050565b60006020820190508181036000830152611fe68184611c6c565b905092915050565b60006020820190506120036000830184611cf0565b92915050565b600060208201905081810360008301526120238184611cff565b905092915050565b600060c08201905081810360008301526120458189611d71565b905081810360208301526120598188611d71565b9050818103604083015261206d8187611d71565b905081810360608301526120818186611d71565b90506120906080830185611cf0565b61209d60a0830184611cf0565b979650505050505050565b60006101008201905081810360008301526120c3818b611d71565b905081810360208301526120d7818a611d71565b905081810360408301526120eb8189611d71565b905081810360608301526120ff8188611d71565b905061210e6080830187611cf0565b61211b60a0830186611cf0565b61212860c0830185611be8565b61213560e0830184611f2e565b9998505050505050505050565b60006020820190506121576000830184611f2e565b92915050565b6000604051905081810181811067ffffffffffffffff82111715612184576121836123fc565b5b8060405250919050565b600067ffffffffffffffff8211156121a9576121a86123fc565b5b601f19601f8301169050602081019050919050565b6000819050602082019050919050565b6000819050602082019050919050565b60008190508160005260206000209050919050565b600081519050919050565b600081519050919050565b600081519050919050565b600081519050919050565b6000602082019050919050565b6000602082019050919050565b600082825260208201905092915050565b600082825260208201905092915050565b600082825260208201905092915050565b600082825260208201905092915050565b600082825260208201905092915050565b600081905092915050565b60006122a4826122b7565b9050919050565b60008115159050919050565b600073ffffffffffffffffffffffffffffffffffffffff82169050919050565b6000819050919050565b82818337600083830152505050565b60005b8381101561230e5780820151818401526020810190506122f3565b8381111561231d576000848401525b50505050565b6000600282049050600182168061233b57607f821691505b6020821081141561234f5761234e6123cd565b5b50919050565b6000612360826122d7565b91507fffffffffffffffffffffffffffffffffffffffffffffffffffffffffffffffff8214156123935761239261239e565b5b600182019050919050565b7f4e487b7100000000000000000000000000000000000000000000000000000000600052601160045260246000fd5b7f4e487b7100000000000000000000000000000000000000000000000000000000600052602260045260246000fd5b7f4e487b7100000000000000000000000000000000000000000000000000000000600052604160045260246000fd5b6000601f19601f8301169050919050565b612445816122d7565b811461245057600080fd5b5056fea2646970667358221220d82c5f63ba2dffde6cf3203a34fe12da4ea106a1b48ba1cedce3c6f4b74cb82d64736f6c63430008000033",
  "immutableReferences": {},
  "source": "// SPDX-License-Identifier: MIT\r\npragma solidity >=0.4.22 <0.9.0;\r\n// pragma experimental ABIEncoderV2;\r\n\r\ncontract MobileDevice {\r\n    // address[16] public sold;\r\n    // address[16] public lost;\r\n    uint256 public deviceCount;\r\n\r\n    struct device {\r\n        string name;\r\n        string imei;\r\n        string location;\r\n        string imageUrl;\r\n        bool sold;\r\n        bool lost;\r\n        address owner;\r\n        uint deviceId;\r\n    }\r\n    device[] public devices;\r\n\r\n    function checkImeiExists(string memory imei) internal view returns (bool) {\r\n        for (uint i = 0; i < devices.length; i++) {\r\n            if (keccak256(abi.encodePacked((devices[i].imei))) == keccak256(abi.encodePacked((imei)))) {\r\n                return true;\r\n            }\r\n        }\r\n        return false;\r\n    }\r\n\r\n    function registerDevice(string memory name_, string memory imei, string memory location, string memory imageUrl) public {\r\n        require(!checkImeiExists(imei));\r\n        devices.push(device({\r\n            name: name_,\r\n            imei: imei,\r\n            location: location,\r\n            imageUrl: imageUrl,\r\n            sold: false,\r\n            lost: false,\r\n            owner: msg.sender,\r\n            deviceId: devices.length\r\n        }));\r\n        deviceCount++;\r\n    }\r\n\r\n\r\n    function purchase(uint deviceId) public returns (uint) {\r\n        require(deviceId >= 0 && deviceId < devices.length);\r\n        require(devices[deviceId].lost == false);\r\n        devices[deviceId].sold = true;\r\n        devices[deviceId].owner = msg.sender;\r\n        // sold[deviceId] = msg.sender;\r\n        return deviceId;\r\n    }\r\n\r\n    // function getDevice() public view returns (address[16] memory) {\r\n    //     return sold;\r\n    // }\r\n\r\n    function markLost(uint deviceId) public {\r\n        // require(deviceId >= 0 && deviceId <= 15);\r\n        require(deviceId >=0 && deviceId < devices.length);\r\n        require(devices[deviceId].sold == true);\r\n        require(devices[deviceId].owner == msg.sender);\r\n        devices[deviceId].lost = true;\r\n        // sold[deviceId] = address(0);\r\n        // lost[deviceId] = msg.sender;\r\n    }\r\n\r\n    // function getLost() public view returns (address[16] memory) {\r\n    //     return lost;\r\n    // }\r\n\r\n    function isDeviceLost(uint256 deviceId) public view returns (bool) {\r\n        return devices[deviceId].lost == true;\r\n    }\r\n\r\n    function isDeviceSold(uint256 deviceId) public view returns (bool) {\r\n        return devices[deviceId].sold == true;\r\n    }\r\n    \r\n    function device_Count() public view returns (uint256) {\r\n        return deviceCount;\r\n    }\r\n\r\n    function getRDevice(uint index) public view returns (string memory, string memory, string memory, string memory, bool, bool) {\r\n        return (devices[index].name, devices[index].imei, devices[index].location, devices[index].imageUrl, devices[index].sold, devices[index].lost);\r\n    }\r\n    // return registered devices encoded as caver.abi.encodeParameters. dont't use encodePacked(). use caver.abi.encodeParameters\r\n    function getRegisteredDevices() public view returns (bytes memory) {\r\n        string[] memory names = new string[](devices.length);\r\n        string[] memory imeis = new string[](devices.length);\r\n        string[] memory locations = new string[](devices.length);\r\n        string[] memory imageUrls = new string[](devices.length);\r\n\r\n        for (uint i = 0; i < devices.length; i++) {\r\n            names[i] = devices[i].name;\r\n            imeis[i] = devices[i].imei;\r\n            locations[i] = devices[i].location;\r\n            imageUrls[i] = devices[i].imageUrl;\r\n        }\r\n        return abi.encode(names, imeis, locations, imageUrls);\r\n    }\r\n    function getRDevices() public view returns (device[] memory) {\r\n        return devices;\r\n    }\r\n\r\n}",
  "sourcePath": "F:\\M. Tech CSIS\\2nd Semester\\Blockchain\\Project Work\\code\\contracts\\MobileDevice.sol",
  "compiler": {
    "name": "solc",
    "version": "0.8.0+commit.c7dfd78e.Emscripten.clang"
  },
  "schemaVersion": "3.4.16",
  "updatedAt": "2024-04-06T15:05:16.656Z",
  "devdoc": {
    "kind": "dev",
    "methods": {},
    "version": 1
  },
  "userdoc": {
    "kind": "user",
    "methods": {},
    "version": 1
  }
}