{
  "contractName": "MobileDevice",
  "abi": [
    {
      "inputs": [],
      "name": "deviceCount",
      "outputs": [
        {
          "internalType": "uint256",
          "name": "",
          "type": "uint256"
        }
      ],
      "stateMutability": "view",
      "type": "function"
    },
    {
      "inputs": [
        {
          "internalType": "uint256",
          "name": "",
          "type": "uint256"
        }
      ],
      "name": "devices",
      "outputs": [
        {
          "internalType": "string",
          "name": "name",
          "type": "string"
        },
        {
          "internalType": "string",
          "name": "imei",
          "type": "string"
        },
        {
          "internalType": "string",
          "name": "location",
          "type": "string"
        },
        {
          "internalType": "string",
          "name": "imageUrl",
          "type": "string"
        },
        {
          "internalType": "address",
          "name": "sold",
          "type": "address"
        },
        {
          "internalType": "address",
          "name": "lost",
          "type": "address"
        },
        {
          "internalType": "address",
          "name": "owner",
          "type": "address"
        },
        {
          "internalType": "uint256",
          "name": "deviceId",
          "type": "uint256"
        }
      ],
      "stateMutability": "view",
      "type": "function"
    },
    {
      "inputs": [
        {
          "internalType": "uint256",
          "name": "",
          "type": "uint256"
        }
      ],
      "name": "lost",
      "outputs": [
        {
          "internalType": "address",
          "name": "",
          "type": "address"
        }
      ],
      "stateMutability": "view",
      "type": "function"
    },
    {
      "inputs": [
        {
          "internalType": "uint256",
          "name": "",
          "type": "uint256"
        }
      ],
      "name": "sold",
      "outputs": [
        {
          "internalType": "address",
          "name": "",
          "type": "address"
        }
      ],
      "stateMutability": "view",
      "type": "function"
    },
    {
      "inputs": [
        {
          "internalType": "string",
          "name": "name_",
          "type": "string"
        },
        {
          "internalType": "string",
          "name": "imei",
          "type": "string"
        },
        {
          "internalType": "string",
          "name": "location",
          "type": "string"
        },
        {
          "internalType": "string",
          "name": "imageUrl",
          "type": "string"
        }
      ],
      "name": "registerDevice",
      "outputs": [],
      "stateMutability": "nonpayable",
      "type": "function"
    },
    {
      "inputs": [
        {
          "internalType": "uint256",
          "name": "deviceId",
          "type": "uint256"
        }
      ],
      "name": "purchase",
      "outputs": [
        {
          "internalType": "uint256",
          "name": "",
          "type": "uint256"
        }
      ],
      "stateMutability": "nonpayable",
      "type": "function"
    },
    {
      "inputs": [],
      "name": "getDevice",
      "outputs": [
        {
          "internalType": "address[16]",
          "name": "",
          "type": "address[16]"
        }
      ],
      "stateMutability": "view",
      "type": "function"
    },
    {
      "inputs": [
        {
          "internalType": "uint256",
          "name": "deviceId",
          "type": "uint256"
        }
      ],
      "name": "markLost",
      "outputs": [],
      "stateMutability": "nonpayable",
      "type": "function"
    },
    {
      "inputs": [],
      "name": "getLost",
      "outputs": [
        {
          "internalType": "address[16]",
          "name": "",
          "type": "address[16]"
        }
      ],
      "stateMutability": "view",
      "type": "function"
    },
    {
      "inputs": [
        {
          "internalType": "uint256",
          "name": "deviceId",
          "type": "uint256"
        }
      ],
      "name": "isDeviceLost",
      "outputs": [
        {
          "internalType": "bool",
          "name": "",
          "type": "bool"
        }
      ],
      "stateMutability": "view",
      "type": "function"
    },
    {
      "inputs": [
        {
          "internalType": "uint256",
          "name": "deviceId",
          "type": "uint256"
        }
      ],
      "name": "isDeviceSold",
      "outputs": [
        {
          "internalType": "bool",
          "name": "",
          "type": "bool"
        }
      ],
      "stateMutability": "view",
      "type": "function"
    },
    {
      "inputs": [],
      "name": "device_Count",
      "outputs": [
        {
          "internalType": "uint256",
          "name": "",
          "type": "uint256"
        }
      ],
      "stateMutability": "view",
      "type": "function"
    },
    {
      "inputs": [
        {
          "internalType": "uint256",
          "name": "index",
          "type": "uint256"
        }
      ],
      "name": "getRDevice",
      "outputs": [
        {
          "internalType": "string",
          "name": "",
          "type": "string"
        },
        {
          "internalType": "string",
          "name": "",
          "type": "string"
        },
        {
          "internalType": "string",
          "name": "",
          "type": "string"
        },
        {
          "internalType": "string",
          "name": "",
          "type": "string"
        }
      ],
      "stateMutability": "view",
      "type": "function"
    },
    {
      "inputs": [],
      "name": "getRegisteredDevices",
      "outputs": [
        {
          "internalType": "bytes",
          "name": "",
          "type": "bytes"
        }
      ],
      "stateMutability": "view",
      "type": "function"
    },
    {
      "inputs": [],
      "name": "getRDevices",
      "outputs": [
        {
          "components": [
            {
              "internalType": "string",
              "name": "name",
              "type": "string"
            },
            {
              "internalType": "string",
              "name": "imei",
              "type": "string"
            },
            {
              "internalType": "string",
              "name": "location",
              "type": "string"
            },
            {
              "internalType": "string",
              "name": "imageUrl",
              "type": "string"
            },
            {
              "internalType": "address",
              "name": "sold",
              "type": "address"
            },
            {
              "internalType": "address",
              "name": "lost",
              "type": "address"
            },
            {
              "internalType": "address",
              "name": "owner",
              "type": "address"
            },
            {
              "internalType": "uint256",
              "name": "deviceId",
              "type": "uint256"
            }
          ],
          "internalType": "struct MobileDevice.device[]",
          "name": "",
          "type": "tuple[]"
        }
      ],
      "stateMutability": "view",
      "type": "function"
    }
  ],
  "bytecode": "0x608060405234801561001057600080fd5b50612820806100206000396000f3fe608060405234801561001057600080fd5b50600436106100f55760003560e01c80637cbc4eb611610097578063cecfe08411610066578063cecfe084146102a3578063d147f95c146102bf578063efef39a1146102dd578063f756d5571461030d576100f5565b80637cbc4eb6146102075780638ce89847146102375780638ea286c2146102555780639c03facb14610273576100f5565b80631da559fe116100d35780631da559fe1461017f5780634458b231146101af578063535bca9a146101cb5780636c70c2e1146101e9576100f5565b8063018938f3146100fa57806310ff8e311461012a57806311d8cfe414610161575b600080fd5b610114600480360381019061010f9190611e77565b610340565b6040516101219190612374565b60405180910390f35b610144600480360381019061013f9190611e77565b6103d4565b604051610158989796959493929190612412565b60405180910390f35b6101696106ac565b60405161017691906124ac565b60405180910390f35b61019960048036038101906101949190611e77565b6106b6565b6040516101a69190612374565b60405180910390f35b6101c960048036038101906101c49190611e77565b61074a565b005b6101d36108ef565b6040516101e091906124ac565b60405180910390f35b6101f16108f5565b6040516101fe91906122d5565b60405180910390f35b610221600480360381019061021c9190611e77565b610975565b60405161022e91906122ba565b60405180910390f35b61023f6109ab565b60405161024c9190612352565b60405180910390f35b61025d610d5f565b60405161026a91906122d5565b60405180910390f35b61028d60048036038101906102889190611e77565b610de0565b60405161029a91906122ba565b60405180910390f35b6102bd60048036038101906102b89190611db4565b610e16565b005b6102c761104a565b6040516102d4919061238f565b60405180910390f35b6102f760048036038101906102f29190611e77565b6116f3565b60405161030491906124ac565b60405180910390f35b61032760048036038101906103229190611e77565b611825565b60405161033794939291906123b1565b60405180910390f35b60008073ffffffffffffffffffffffffffffffffffffffff1660108360108110610393577f4e487b7100000000000000000000000000000000000000000000000000000000600052603260045260246000fd5b0160009054906101000a900473ffffffffffffffffffffffffffffffffffffffff1673ffffffffffffffffffffffffffffffffffffffff1614159050919050565b602181815481106103e457600080fd5b9060005260206000209060080201600091509050806000018054610407906126ba565b80601f0160208091040260200160405190810160405280929190818152602001828054610433906126ba565b80156104805780601f1061045557610100808354040283529160200191610480565b820191906000526020600020905b81548152906001019060200180831161046357829003601f168201915b505050505090806001018054610495906126ba565b80601f01602080910402602001604051908101604052809291908181526020018280546104c1906126ba565b801561050e5780601f106104e35761010080835404028352916020019161050e565b820191906000526020600020905b8154815290600101906020018083116104f157829003601f168201915b505050505090806002018054610523906126ba565b80601f016020809104026020016040519081016040528092919081815260200182805461054f906126ba565b801561059c5780601f106105715761010080835404028352916020019161059c565b820191906000526020600020905b81548152906001019060200180831161057f57829003601f168201915b5050505050908060030180546105b1906126ba565b80601f01602080910402602001604051908101604052809291908181526020018280546105dd906126ba565b801561062a5780601f106105ff5761010080835404028352916020019161062a565b820191906000526020600020905b81548152906001019060200180831161060d57829003601f168201915b5050505050908060040160009054906101000a900473ffffffffffffffffffffffffffffffffffffffff16908060050160009054906101000a900473ffffffffffffffffffffffffffffffffffffffff16908060060160009054906101000a900473ffffffffffffffffffffffffffffffffffffffff16908060070154905088565b6000602054905090565b60008073ffffffffffffffffffffffffffffffffffffffff1660008360108110610709577f4e487b7100000000000000000000000000000000000000000000000000000000600052603260045260246000fd5b0160009054906101000a900473ffffffffffffffffffffffffffffffffffffffff1673ffffffffffffffffffffffffffffffffffffffff1614159050919050565b6000811015801561075c5750600f8111155b61076557600080fd5b3373ffffffffffffffffffffffffffffffffffffffff16600082601081106107b6577f4e487b7100000000000000000000000000000000000000000000000000000000600052603260045260246000fd5b0160009054906101000a900473ffffffffffffffffffffffffffffffffffffffff1673ffffffffffffffffffffffffffffffffffffffff16146107f857600080fd5b6000808260108110610833577f4e487b7100000000000000000000000000000000000000000000000000000000600052603260045260246000fd5b0160006101000a81548173ffffffffffffffffffffffffffffffffffffffff021916908373ffffffffffffffffffffffffffffffffffffffff16021790555033601082601081106108ad577f4e487b7100000000000000000000000000000000000000000000000000000000600052603260045260246000fd5b0160006101000a81548173ffffffffffffffffffffffffffffffffffffffff021916908373ffffffffffffffffffffffffffffffffffffffff16021790555050565b60205481565b6108fd611c71565b6010808060200260405190810160405280929190826010801561096b576020028201915b8160009054906101000a900473ffffffffffffffffffffffffffffffffffffffff1673ffffffffffffffffffffffffffffffffffffffff1681526020019060010190808311610921575b5050505050905090565b6010816010811061098557600080fd5b016000915054906101000a900473ffffffffffffffffffffffffffffffffffffffff1681565b60606021805480602002602001604051908101604052809291908181526020016000905b82821015610d56578382906000526020600020906008020160405180610100016040529081600082018054610a03906126ba565b80601f0160208091040260200160405190810160405280929190818152602001828054610a2f906126ba565b8015610a7c5780601f10610a5157610100808354040283529160200191610a7c565b820191906000526020600020905b815481529060010190602001808311610a5f57829003601f168201915b50505050508152602001600182018054610a95906126ba565b80601f0160208091040260200160405190810160405280929190818152602001828054610ac1906126ba565b8015610b0e5780601f10610ae357610100808354040283529160200191610b0e565b820191906000526020600020905b815481529060010190602001808311610af157829003601f168201915b50505050508152602001600282018054610b27906126ba565b80601f0160208091040260200160405190810160405280929190818152602001828054610b53906126ba565b8015610ba05780601f10610b7557610100808354040283529160200191610ba0565b820191906000526020600020905b815481529060010190602001808311610b8357829003601f168201915b50505050508152602001600382018054610bb9906126ba565b80601f0160208091040260200160405190810160405280929190818152602001828054610be5906126ba565b8015610c325780601f10610c0757610100808354040283529160200191610c32565b820191906000526020600020905b815481529060010190602001808311610c1557829003601f168201915b505050505081526020016004820160009054906101000a900473ffffffffffffffffffffffffffffffffffffffff1673ffffffffffffffffffffffffffffffffffffffff1673ffffffffffffffffffffffffffffffffffffffff1681526020016005820160009054906101000a900473ffffffffffffffffffffffffffffffffffffffff1673ffffffffffffffffffffffffffffffffffffffff1673ffffffffffffffffffffffffffffffffffffffff1681526020016006820160009054906101000a900473ffffffffffffffffffffffffffffffffffffffff1673ffffffffffffffffffffffffffffffffffffffff1673ffffffffffffffffffffffffffffffffffffffff168152602001600782015481525050815260200190600101906109cf565b50505050905090565b610d67611c71565b6000601080602002604051908101604052809291908260108015610dd6576020028201915b8160009054906101000a900473ffffffffffffffffffffffffffffffffffffffff1673ffffffffffffffffffffffffffffffffffffffff1681526020019060010190808311610d8c575b5050505050905090565b60008160108110610df057600080fd5b016000915054906101000a900473ffffffffffffffffffffffffffffffffffffffff1681565b610e1f83611b96565b15610e2957600080fd5b6021604051806101000160405280868152602001858152602001848152602001838152602001600073ffffffffffffffffffffffffffffffffffffffff168152602001600073ffffffffffffffffffffffffffffffffffffffff1681526020013373ffffffffffffffffffffffffffffffffffffffff16815260200160218054905081525090806001815401808255809150506001900390600052602060002090600802016000909190919091506000820151816000019080519060200190610ef3929190611c94565b506020820151816001019080519060200190610f10929190611c94565b506040820151816002019080519060200190610f2d929190611c94565b506060820151816003019080519060200190610f4a929190611c94565b5060808201518160040160006101000a81548173ffffffffffffffffffffffffffffffffffffffff021916908373ffffffffffffffffffffffffffffffffffffffff16021790555060a08201518160050160006101000a81548173ffffffffffffffffffffffffffffffffffffffff021916908373ffffffffffffffffffffffffffffffffffffffff16021790555060c08201518160060160006101000a81548173ffffffffffffffffffffffffffffffffffffffff021916908373ffffffffffffffffffffffffffffffffffffffff16021790555060e0820151816007015550506020600081548092919061103f906126ec565b919050555050505050565b6060600060218054905067ffffffffffffffff811115611093577f4e487b7100000000000000000000000000000000000000000000000000000000600052604160045260246000fd5b6040519080825280602002602001820160405280156110c657816020015b60608152602001906001900390816110b15790505b509050600060218054905067ffffffffffffffff811115611110577f4e487b7100000000000000000000000000000000000000000000000000000000600052604160045260246000fd5b60405190808252806020026020018201604052801561114357816020015b606081526020019060019003908161112e5790505b509050600060218054905067ffffffffffffffff81111561118d577f4e487b7100000000000000000000000000000000000000000000000000000000600052604160045260246000fd5b6040519080825280602002602001820160405280156111c057816020015b60608152602001906001900390816111ab5790505b509050600060218054905067ffffffffffffffff81111561120a577f4e487b7100000000000000000000000000000000000000000000000000000000600052604160045260246000fd5b60405190808252806020026020018201604052801561123d57816020015b60608152602001906001900390816112285790505b50905060005b6021805490508110156116c3576021818154811061128a577f4e487b7100000000000000000000000000000000000000000000000000000000600052603260045260246000fd5b906000526020600020906008020160000180546112a6906126ba565b80601f01602080910402602001604051908101604052809291908181526020018280546112d2906126ba565b801561131f5780601f106112f45761010080835404028352916020019161131f565b820191906000526020600020905b81548152906001019060200180831161130257829003601f168201915b505050505085828151811061135d577f4e487b7100000000000000000000000000000000000000000000000000000000600052603260045260246000fd5b6020026020010181905250602181815481106113a2577f4e487b7100000000000000000000000000000000000000000000000000000000600052603260045260246000fd5b906000526020600020906008020160010180546113be906126ba565b80601f01602080910402602001604051908101604052809291908181526020018280546113ea906126ba565b80156114375780601f1061140c57610100808354040283529160200191611437565b820191906000526020600020905b81548152906001019060200180831161141a57829003601f168201915b5050505050848281518110611475577f4e487b7100000000000000000000000000000000000000000000000000000000600052603260045260246000fd5b6020026020010181905250602181815481106114ba577f4e487b7100000000000000000000000000000000000000000000000000000000600052603260045260246000fd5b906000526020600020906008020160020180546114d6906126ba565b80601f0160208091040260200160405190810160405280929190818152602001828054611502906126ba565b801561154f5780601f106115245761010080835404028352916020019161154f565b820191906000526020600020905b81548152906001019060200180831161153257829003601f168201915b505050505083828151811061158d577f4e487b7100000000000000000000000000000000000000000000000000000000600052603260045260246000fd5b6020026020010181905250602181815481106115d2577f4e487b7100000000000000000000000000000000000000000000000000000000600052603260045260246000fd5b906000526020600020906008020160030180546115ee906126ba565b80601f016020809104026020016040519081016040528092919081815260200182805461161a906126ba565b80156116675780601f1061163c57610100808354040283529160200191611667565b820191906000526020600020905b81548152906001019060200180831161164a57829003601f168201915b50505050508282815181106116a5577f4e487b7100000000000000000000000000000000000000000000000000000000600052603260045260246000fd5b602002602001018190525080806116bb906126ec565b915050611243565b50838383836040516020016116db94939291906122f1565b60405160208183030381529060405294505050505090565b60008082101580156117065750600f8211155b61170f57600080fd5b3373ffffffffffffffffffffffffffffffffffffffff1660108360108110611760577f4e487b7100000000000000000000000000000000000000000000000000000000600052603260045260246000fd5b0160009054906101000a900473ffffffffffffffffffffffffffffffffffffffff1673ffffffffffffffffffffffffffffffffffffffff1614156117a357600080fd5b33600083601081106117de577f4e487b7100000000000000000000000000000000000000000000000000000000600052603260045260246000fd5b0160006101000a81548173ffffffffffffffffffffffffffffffffffffffff021916908373ffffffffffffffffffffffffffffffffffffffff160217905550819050919050565b60608060608060218581548110611865577f4e487b7100000000000000000000000000000000000000000000000000000000600052603260045260246000fd5b9060005260206000209060080201600001602186815481106118b0577f4e487b7100000000000000000000000000000000000000000000000000000000600052603260045260246000fd5b9060005260206000209060080201600101602187815481106118fb577f4e487b7100000000000000000000000000000000000000000000000000000000600052603260045260246000fd5b906000526020600020906008020160020160218881548110611946577f4e487b7100000000000000000000000000000000000000000000000000000000600052603260045260246000fd5b9060005260206000209060080201600301838054611963906126ba565b80601f016020809104026020016040519081016040528092919081815260200182805461198f906126ba565b80156119dc5780601f106119b1576101008083540402835291602001916119dc565b820191906000526020600020905b8154815290600101906020018083116119bf57829003601f168201915b505050505093508280546119ef906126ba565b80601f0160208091040260200160405190810160405280929190818152602001828054611a1b906126ba565b8015611a685780601f10611a3d57610100808354040283529160200191611a68565b820191906000526020600020905b815481529060010190602001808311611a4b57829003601f168201915b50505050509250818054611a7b906126ba565b80601f0160208091040260200160405190810160405280929190818152602001828054611aa7906126ba565b8015611af45780601f10611ac957610100808354040283529160200191611af4565b820191906000526020600020905b815481529060010190602001808311611ad757829003601f168201915b50505050509150808054611b07906126ba565b80601f0160208091040260200160405190810160405280929190818152602001828054611b33906126ba565b8015611b805780601f10611b5557610100808354040283529160200191611b80565b820191906000526020600020905b815481529060010190602001808311611b6357829003601f168201915b5050505050905093509350935093509193509193565b600080600090505b602180549050811015611c665782604051602001611bbc919061228c565b6040516020818303038152906040528051906020012060218281548110611c0c577f4e487b7100000000000000000000000000000000000000000000000000000000600052603260045260246000fd5b9060005260206000209060080201600101604051602001611c2d91906122a3565b604051602081830303815290604052805190602001201415611c53576001915050611c6c565b8080611c5e906126ec565b915050611b9e565b50600090505b919050565b604051806102000160405280601090602082028036833780820191505090505090565b828054611ca0906126ba565b90600052602060002090601f016020900481019282611cc25760008555611d09565b82601f10611cdb57805160ff1916838001178555611d09565b82800160010185558215611d09579182015b82811115611d08578251825591602001919060010190611ced565b5b509050611d169190611d1a565b5090565b5b80821115611d33576000816000905550600101611d1b565b5090565b6000611d4a611d45846124f8565b6124c7565b905082815260208101848484011115611d6257600080fd5b611d6d848285612678565b509392505050565b600082601f830112611d8657600080fd5b8135611d96848260208601611d37565b91505092915050565b600081359050611dae816127d3565b92915050565b60008060008060808587031215611dca57600080fd5b600085013567ffffffffffffffff811115611de457600080fd5b611df087828801611d75565b945050602085013567ffffffffffffffff811115611e0d57600080fd5b611e1987828801611d75565b935050604085013567ffffffffffffffff811115611e3657600080fd5b611e4287828801611d75565b925050606085013567ffffffffffffffff811115611e5f57600080fd5b611e6b87828801611d75565b91505092959194509250565b600060208284031215611e8957600080fd5b6000611e9784828501611d9f565b91505092915050565b6000611eac8383611ee0565b60208301905092915050565b6000611ec48383612087565b905092915050565b6000611ed883836121a9565b905092915050565b611ee981612630565b82525050565b611ef881612630565b82525050565b611f0781612567565b611f1181846125c5565b9250611f1c82612528565b8060005b83811015611f4d578151611f348782611ea0565b9650611f3f8361259e565b925050600181019050611f20565b505050505050565b6000611f6082612572565b611f6a81856125d0565b935083602082028501611f7c85612532565b8060005b85811015611fb85784840389528151611f998582611eb8565b9450611fa4836125ab565b925060208a01995050600181019050611f80565b50829750879550505050505092915050565b6000611fd58261257d565b611fdf81856125e1565b935083602082028501611ff185612542565b8060005b8581101561202d578484038952815161200e8582611ecc565b9450612019836125b8565b925060208a01995050600181019050611ff5565b50829750879550505050505092915050565b61204881612642565b82525050565b600061205982612588565b61206381856125f2565b9350612073818560208601612687565b61207c816127c2565b840191505092915050565b600061209282612593565b61209c8185612603565b93506120ac818560208601612687565b6120b5816127c2565b840191505092915050565b60006120cb82612593565b6120d58185612614565b93506120e5818560208601612687565b6120ee816127c2565b840191505092915050565b600061210482612593565b61210e8185612625565b935061211e818560208601612687565b80840191505092915050565b60008154612137816126ba565b6121418186612625565b9450600182166000811461215c576001811461216d576121a0565b60ff198316865281860193506121a0565b61217685612552565b60005b8381101561219857815481890152600182019150602081019050612179565b838801955050505b50505092915050565b60006101008301600083015184820360008601526121c78282612087565b915050602083015184820360208601526121e18282612087565b915050604083015184820360408601526121fb8282612087565b915050606083015184820360608601526122158282612087565b915050608083015161222a6080860182611ee0565b5060a083015161223d60a0860182611ee0565b5060c083015161225060c0860182611ee0565b5060e083015161226360e086018261226e565b508091505092915050565b6122778161266e565b82525050565b6122868161266e565b82525050565b600061229882846120f9565b915081905092915050565b60006122af828461212a565b915081905092915050565b60006020820190506122cf6000830184611eef565b92915050565b6000610200820190506122eb6000830184611efe565b92915050565b6000608082019050818103600083015261230b8187611f55565b9050818103602083015261231f8186611f55565b905081810360408301526123338185611f55565b905081810360608301526123478184611f55565b905095945050505050565b6000602082019050818103600083015261236c8184611fca565b905092915050565b6000602082019050612389600083018461203f565b92915050565b600060208201905081810360008301526123a9818461204e565b905092915050565b600060808201905081810360008301526123cb81876120c0565b905081810360208301526123df81866120c0565b905081810360408301526123f381856120c0565b9050818103606083015261240781846120c0565b905095945050505050565b600061010082019050818103600083015261242d818b6120c0565b90508181036020830152612441818a6120c0565b9050818103604083015261245581896120c0565b9050818103606083015261246981886120c0565b90506124786080830187611eef565b61248560a0830186611eef565b61249260c0830185611eef565b61249f60e083018461227d565b9998505050505050505050565b60006020820190506124c1600083018461227d565b92915050565b6000604051905081810181811067ffffffffffffffff821117156124ee576124ed612793565b5b8060405250919050565b600067ffffffffffffffff82111561251357612512612793565b5b601f19601f8301169050602081019050919050565b6000819050919050565b6000819050602082019050919050565b6000819050602082019050919050565b60008190508160005260206000209050919050565b600060109050919050565b600081519050919050565b600081519050919050565b600081519050919050565b600081519050919050565b6000602082019050919050565b6000602082019050919050565b6000602082019050919050565b600081905092915050565b600082825260208201905092915050565b600082825260208201905092915050565b600082825260208201905092915050565b600082825260208201905092915050565b600082825260208201905092915050565b600081905092915050565b600061263b8261264e565b9050919050565b60008115159050919050565b600073ffffffffffffffffffffffffffffffffffffffff82169050919050565b6000819050919050565b82818337600083830152505050565b60005b838110156126a557808201518184015260208101905061268a565b838111156126b4576000848401525b50505050565b600060028204905060018216806126d257607f821691505b602082108114156126e6576126e5612764565b5b50919050565b60006126f78261266e565b91507fffffffffffffffffffffffffffffffffffffffffffffffffffffffffffffffff82141561272a57612729612735565b5b600182019050919050565b7f4e487b7100000000000000000000000000000000000000000000000000000000600052601160045260246000fd5b7f4e487b7100000000000000000000000000000000000000000000000000000000600052602260045260246000fd5b7f4e487b7100000000000000000000000000000000000000000000000000000000600052604160045260246000fd5b6000601f19601f8301169050919050565b6127dc8161266e565b81146127e757600080fd5b5056fea2646970667358221220c4a30b1d02e447f2ffb0a7d527e22e8ae69215b7c9e1994ef44d3d8f135b984964736f6c63430008000033",
  "immutableReferences": {},
  "source": "// SPDX-License-Identifier: MIT\r\npragma solidity >=0.4.22 <0.9.0;\r\n// pragma experimental ABIEncoderV2;\r\n\r\ncontract MobileDevice {\r\n    address[16] public sold;\r\n    address[16] public lost;\r\n    uint256 public deviceCount;\r\n\r\n    struct device {\r\n        string name;\r\n        string imei;\r\n        string location;\r\n        string imageUrl;\r\n        address sold;\r\n        address lost;\r\n        address owner;\r\n        uint deviceId;\r\n    }\r\n    device[] public devices;\r\n\r\n    function checkImeiExists(string memory imei) internal view returns (bool) {\r\n        for (uint i = 0; i < devices.length; i++) {\r\n            if (keccak256(abi.encodePacked((devices[i].imei))) == keccak256(abi.encodePacked((imei)))) {\r\n                return true;\r\n            }\r\n        }\r\n        return false;\r\n    }\r\n\r\n    function registerDevice(string memory name_, string memory imei, string memory location, string memory imageUrl) public {\r\n        require(!checkImeiExists(imei));\r\n        devices.push(device({\r\n            name: name_,\r\n            imei: imei,\r\n            location: location,\r\n            imageUrl: imageUrl,\r\n            sold: address(0),\r\n            lost: address(0),\r\n            owner: msg.sender,\r\n            deviceId: devices.length\r\n        }));\r\n        deviceCount++;\r\n    }\r\n\r\n\r\n    function purchase(uint deviceId) public returns (uint) {\r\n        require(deviceId >= 0 && deviceId <= 15);\r\n        require(lost[deviceId] != msg.sender);\r\n        sold[deviceId] = msg.sender;\r\n        return deviceId;\r\n    }\r\n\r\n    function getDevice() public view returns (address[16] memory) {\r\n        return sold;\r\n    }\r\n\r\n    function markLost(uint deviceId) public {\r\n        require(deviceId >= 0 && deviceId <= 15);\r\n        require(sold[deviceId] == msg.sender);\r\n        sold[deviceId] = address(0);\r\n        lost[deviceId] = msg.sender;\r\n    }\r\n\r\n    function getLost() public view returns (address[16] memory) {\r\n        return lost;\r\n    }\r\n\r\n    function isDeviceLost(uint256 deviceId) public view returns (bool) {\r\n        return lost[deviceId] != address(0);\r\n    }\r\n\r\n    function isDeviceSold(uint256 deviceId) public view returns (bool) {\r\n        return sold[deviceId] != address(0);\r\n    }\r\n    \r\n    function device_Count() public view returns (uint256) {\r\n        return deviceCount;\r\n    }\r\n\r\n    function getRDevice(uint index) public view returns (string memory, string memory, string memory, string memory) {\r\n        return (devices[index].name, devices[index].imei, devices[index].location, devices[index].imageUrl);\r\n    }\r\n    // return registered devices encoded as caver.abi.encodeParameters. dont't use encodePacked(). use caver.abi.encodeParameters\r\n    function getRegisteredDevices() public view returns (bytes memory) {\r\n        string[] memory names = new string[](devices.length);\r\n        string[] memory imeis = new string[](devices.length);\r\n        string[] memory locations = new string[](devices.length);\r\n        string[] memory imageUrls = new string[](devices.length);\r\n\r\n        for (uint i = 0; i < devices.length; i++) {\r\n            names[i] = devices[i].name;\r\n            imeis[i] = devices[i].imei;\r\n            locations[i] = devices[i].location;\r\n            imageUrls[i] = devices[i].imageUrl;\r\n        }\r\n        return abi.encode(names, imeis, locations, imageUrls);\r\n    }\r\n    function getRDevices() public view returns (device[] memory) {\r\n        return devices;\r\n    }\r\n\r\n}\r\n",
  "sourcePath": "F:\\M. Tech CSIS\\2nd Semester\\Blockchain\\Project Work\\code\\contracts\\MobileDevice.sol",
  "compiler": {
    "name": "solc",
    "version": "0.8.0+commit.c7dfd78e.Emscripten.clang"
  },
  "schemaVersion": "3.4.16",
  "updatedAt": "2024-04-06T09:57:25.482Z",
  "devdoc": {
    "kind": "dev",
    "methods": {},
    "version": 1
  },
  "userdoc": {
    "kind": "user",
    "methods": {},
    "version": 1
  }
}