{
  "contractName": "MobileDevice",
  "abi": [
    {
      "constant": true,
      "inputs": [
        {
          "internalType": "uint256",
          "name": "",
          "type": "uint256"
        }
      ],
      "name": "lost",
      "outputs": [
        {
          "internalType": "address",
          "name": "",
          "type": "address"
        }
      ],
      "payable": false,
      "stateMutability": "view",
      "type": "function"
    },
    {
      "constant": true,
      "inputs": [
        {
          "internalType": "uint256",
          "name": "",
          "type": "uint256"
        }
      ],
      "name": "sold",
      "outputs": [
        {
          "internalType": "address",
          "name": "",
          "type": "address"
        }
      ],
      "payable": false,
      "stateMutability": "view",
      "type": "function"
    },
    {
      "constant": false,
      "inputs": [
        {
          "internalType": "uint256",
          "name": "deviceId",
          "type": "uint256"
        }
      ],
      "name": "purchase",
      "outputs": [
        {
          "internalType": "uint256",
          "name": "",
          "type": "uint256"
        }
      ],
      "payable": false,
      "stateMutability": "nonpayable",
      "type": "function"
    },
    {
      "constant": true,
      "inputs": [],
      "name": "getDevice",
      "outputs": [
        {
          "internalType": "address[16]",
          "name": "",
          "type": "address[16]"
        }
      ],
      "payable": false,
      "stateMutability": "view",
      "type": "function"
    },
    {
      "constant": false,
      "inputs": [
        {
          "internalType": "uint256",
          "name": "deviceId",
          "type": "uint256"
        }
      ],
      "name": "markLost",
      "outputs": [],
      "payable": false,
      "stateMutability": "nonpayable",
      "type": "function"
    },
    {
      "constant": true,
      "inputs": [],
      "name": "getLost",
      "outputs": [
        {
          "internalType": "address[16]",
          "name": "",
          "type": "address[16]"
        }
      ],
      "payable": false,
      "stateMutability": "view",
      "type": "function"
    },
    {
      "constant": true,
      "inputs": [
        {
          "internalType": "uint256",
          "name": "deviceId",
          "type": "uint256"
        }
      ],
      "name": "isDeviceLost",
      "outputs": [
        {
          "internalType": "bool",
          "name": "",
          "type": "bool"
        }
      ],
      "payable": false,
      "stateMutability": "view",
      "type": "function"
    },
    {
      "constant": true,
      "inputs": [
        {
          "internalType": "uint256",
          "name": "deviceId",
          "type": "uint256"
        }
      ],
      "name": "isDeviceSold",
      "outputs": [
        {
          "internalType": "bool",
          "name": "",
          "type": "bool"
        }
      ],
      "payable": false,
      "stateMutability": "view",
      "type": "function"
    }
  ],
  "bytecode": "0x608060405234801561001057600080fd5b50610774806100206000396000f3fe608060405234801561001057600080fd5b50600436106100885760003560e01c80637cbc4eb61161005b5780637cbc4eb61461018d5780638ea286c2146101fb5780639c03facb14610241578063efef39a1146102af57610088565b8063018938f31461008d5780631da559fe146100d35780634458b231146101195780636c70c2e114610147575b600080fd5b6100b9600480360360208110156100a357600080fd5b81019080803590602001909291905050506102f1565b604051808215151515815260200191505060405180910390f35b6100ff600480360360208110156100e957600080fd5b8101908080359060200190929190505050610358565b604051808215151515815260200191505060405180910390f35b6101456004803603602081101561012f57600080fd5b81019080803590602001909291905050506103bf565b005b61014f6104dd565b6040518082601060200280838360005b8381101561017a57808201518184015260208101905061015f565b5050505090500191505060405180910390f35b6101b9600480360360208110156101a357600080fd5b810190808035906020019092919050505061055d565b604051808273ffffffffffffffffffffffffffffffffffffffff1673ffffffffffffffffffffffffffffffffffffffff16815260200191505060405180910390f35b610203610590565b6040518082601060200280838360005b8381101561022e578082015181840152602081019050610213565b5050505090500191505060405180910390f35b61026d6004803603602081101561025757600080fd5b8101908080359060200190929190505050610611565b604051808273ffffffffffffffffffffffffffffffffffffffff1673ffffffffffffffffffffffffffffffffffffffff16815260200191505060405180910390f35b6102db600480360360208110156102c557600080fd5b8101908080359060200190929190505050610644565b6040518082815260200191505060405180910390f35b60008073ffffffffffffffffffffffffffffffffffffffff166010836010811061031757fe5b0160009054906101000a900473ffffffffffffffffffffffffffffffffffffffff1673ffffffffffffffffffffffffffffffffffffffff1614159050919050565b60008073ffffffffffffffffffffffffffffffffffffffff166000836010811061037e57fe5b0160009054906101000a900473ffffffffffffffffffffffffffffffffffffffff1673ffffffffffffffffffffffffffffffffffffffff1614159050919050565b600081101580156103d15750600f8111155b6103da57600080fd5b3373ffffffffffffffffffffffffffffffffffffffff16600082601081106103fe57fe5b0160009054906101000a900473ffffffffffffffffffffffffffffffffffffffff1673ffffffffffffffffffffffffffffffffffffffff161461044057600080fd5b600080826010811061044e57fe5b0160006101000a81548173ffffffffffffffffffffffffffffffffffffffff021916908373ffffffffffffffffffffffffffffffffffffffff160217905550336010826010811061049b57fe5b0160006101000a81548173ffffffffffffffffffffffffffffffffffffffff021916908373ffffffffffffffffffffffffffffffffffffffff16021790555050565b6104e561071c565b60108080602002604051908101604052809291908260108015610553576020028201915b8160009054906101000a900473ffffffffffffffffffffffffffffffffffffffff1673ffffffffffffffffffffffffffffffffffffffff1681526020019060010190808311610509575b5050505050905090565b6010816010811061056a57fe5b016000915054906101000a900473ffffffffffffffffffffffffffffffffffffffff1681565b61059861071c565b6000601080602002604051908101604052809291908260108015610607576020028201915b8160009054906101000a900473ffffffffffffffffffffffffffffffffffffffff1673ffffffffffffffffffffffffffffffffffffffff16815260200190600101908083116105bd575b5050505050905090565b6000816010811061061e57fe5b016000915054906101000a900473ffffffffffffffffffffffffffffffffffffffff1681565b60008082101580156106575750600f8211155b61066057600080fd5b3373ffffffffffffffffffffffffffffffffffffffff166010836010811061068457fe5b0160009054906101000a900473ffffffffffffffffffffffffffffffffffffffff1673ffffffffffffffffffffffffffffffffffffffff1614156106c757600080fd5b33600083601081106106d557fe5b0160006101000a81548173ffffffffffffffffffffffffffffffffffffffff021916908373ffffffffffffffffffffffffffffffffffffffff160217905550819050919050565b60405180610200016040528060109060208202803883398082019150509050509056fea265627a7a723158203b1d00ca48a61de5e099d2b9290d6aa4265faccb93aa00b9efabf34aaa257f4864736f6c63430005100032",
  "source": "pragma solidity ^0.5.0;\r\n\r\ncontract MobileDevice {\r\n    address[16] public sold;\r\n    address[16] public lost;\r\n\r\n    function purchase(uint deviceId) public returns (uint) {\r\n        require(deviceId >= 0 && deviceId <= 15);\r\n        require(lost[deviceId] != msg.sender);\r\n        sold[deviceId] = msg.sender;\r\n        return deviceId;\r\n    }\r\n\r\n    function getDevice() public view returns (address[16] memory) {\r\n        return sold;\r\n    }\r\n\r\n    function markLost(uint deviceId) public {\r\n        require(deviceId >= 0 && deviceId <= 15);\r\n        require(sold[deviceId] == msg.sender);\r\n        sold[deviceId] = address(0);\r\n        lost[deviceId] = msg.sender;\r\n    }\r\n\r\n    function getLost() public view returns (address[16] memory) {\r\n        return lost;\r\n    }\r\n\r\n    function isDeviceLost(uint256 deviceId) public view returns (bool) {\r\n        return lost[deviceId] != address(0);\r\n    }\r\n\r\n    function isDeviceSold(uint256 deviceId) public view returns (bool) {\r\n        return sold[deviceId] != address(0);\r\n    }\r\n}\r\n",
  "sourcePath": "F:\\M. Tech CSIS\\2nd Semester\\Blockchain\\Project Work\\code\\contracts\\MobileDevice.sol",
  "compiler": {
    "name": "solc",
    "version": "0.5.16+commit.9c3226ce.Emscripten.clang"
  },
  "schemaVersion": "3.4.16",
  "updatedAt": "2024-03-30T21:14:45.435Z",
  "devdoc": {
    "methods": {}
  },
  "userdoc": {
    "methods": {}
  }
}